{
  "transactions": [
    {
      "hash": "0x9f114237460549e4d15e937a5d8f0cc681aa11e41ffe8e3ecde552ac03605339",
      "transactionType": "CALL",
      "contractName": null,
      "contractAddress": "0xF144bDB6274F5Ee15f1A67FBD6e7122779294222",
      "function": "setDexAddress(address)",
      "arguments": [
        "0xCc0c5D06b1e4bE9472c877b648e7A60Cc502A684"
      ],
      "transaction": {
        "type": "0x02",
        "from": "0xd3e7c6032cb71bac39c2c16df41b5364b6158de5",
        "to": "0xf144bdb6274f5ee15f1a67fbd6e7122779294222",
        "gas": "0xf8c8",
        "value": "0x0",
        "data": "0x26f9a952000000000000000000000000cc0c5d06b1e4be9472c877b648e7a60cc502a684",
        "nonce": "0xf4",
        "accessList": []
      },
      "additionalContracts": [],
      "isFixedGasLimit": false
    }
  ],
  "receipts": [
    {
      "transactionHash": "0x9f114237460549e4d15e937a5d8f0cc681aa11e41ffe8e3ecde552ac03605339",
      "transactionIndex": "0x1a",
      "blockHash": "0x968c0e1d9bfa8bca60a1d6584273b4e115144e717b781e2a2fea124eb086538e",
      "blockNumber": "0x58f44f",
      "from": "0xd3E7c6032Cb71BAc39C2c16Df41b5364b6158de5",
      "to": "0xF144bDB6274F5Ee15f1A67FBD6e7122779294222",
      "cumulativeGasUsed": "0x2237e4",
      "gasUsed": "0xb41e",
      "contractAddress": null,
      "logs": [],
      "status": "0x1",
      "logsBloom": "0x00000000000000000000000000000000000000000000000000000000000000000000000000000000000000000000000000000000000000000000000000000000000000000000000000000000000000000000000000000000000000000000000000000000000000000000000000000000000000000000000000000000000000000000000000000000000000000000000000000000000000000000000000000000000000000000000000000000000000000000000000000000000000000000000000000000000000000000000000000000000000000000000000000000000000000000000000000000000000000000000000000000000000000000000000000000",
      "type": "0x2",
      "effectiveGasPrice": "0x8c89dae0d"
    }
  ],
  "libraries": [],
  "pending": [],
  "returns": {},
  "timestamp": 1714758148,
  "chain": 11155111,
  "commit": "f1da080"
}