{
  "transactions": [
    {
      "hash": "0xfccc08f38bd3a60213958f718d339be82c7ec83c0152039e190b33c3be6a24e5",
      "transactionType": "CALL",
      "contractName": null,
      "contractAddress": "0x3A282826128170Bfff3c9a60b863a06138850222",
      "function": "setDexAddress(address)",
      "arguments": [
        "0x26Eef5ADFd6d0524c5C256930afB0C18BfAb4edd"
      ],
      "transaction": {
        "type": "0x02",
        "from": "0xd3e7c6032cb71bac39c2c16df41b5364b6158de5",
        "to": "0x3a282826128170bfff3c9a60b863a06138850222",
        "gas": "0xa5ba",
        "value": "0x0",
        "data": "0x26f9a95200000000000000000000000026eef5adfd6d0524c5c256930afb0c18bfab4edd",
        "nonce": "0x133",
        "accessList": []
      },
      "additionalContracts": [],
      "isFixedGasLimit": false
    },
    {
      "hash": "0x41895522fad112a22f88a8910a5ab8990bcdfc3e7694af4907844dc7899fbcf9",
      "transactionType": "CALL",
      "contractName": null,
      "contractAddress": "0x88722fe08849E91eD6dA694B62EFD37885c5dBFd",
      "function": "mint(address,uint256)",
      "arguments": [
        "0x26Eef5ADFd6d0524c5C256930afB0C18BfAb4edd",
        "100000000000000000000"
      ],
      "transaction": {
        "type": "0x02",
        "from": "0xd3e7c6032cb71bac39c2c16df41b5364b6158de5",
        "to": "0x88722fe08849e91ed6da694b62efd37885c5dbfd",
        "gas": "0x120f9",
        "value": "0x0",
        "data": "0x40c10f1900000000000000000000000026eef5adfd6d0524c5c256930afb0c18bfab4edd0000000000000000000000000000000000000000000000056bc75e2d63100000",
        "nonce": "0x134",
        "accessList": []
      },
      "additionalContracts": [],
      "isFixedGasLimit": false
    },
    {
      "hash": "0x8a4b6dc0e64244fabbce67622eb2c473cd40de78b8d46adf2cde6f2d06c49636",
      "transactionType": "CALL",
      "contractName": null,
      "contractAddress": "0x72441784AeAFDb42a26880FE4b6e17370029a16c",
      "function": "approve(address,uint256)",
      "arguments": [
        "0x26Eef5ADFd6d0524c5C256930afB0C18BfAb4edd",
        "100000000"
      ],
      "transaction": {
        "type": "0x02",
        "from": "0xd3e7c6032cb71bac39c2c16df41b5364b6158de5",
        "to": "0x72441784aeafdb42a26880fe4b6e17370029a16c",
        "gas": "0x108d0",
        "value": "0x0",
        "data": "0x095ea7b300000000000000000000000026eef5adfd6d0524c5c256930afb0c18bfab4edd0000000000000000000000000000000000000000000000000000000005f5e100",
        "nonce": "0x135",
        "accessList": []
      },
      "additionalContracts": [],
      "isFixedGasLimit": false
    },
    {
      "hash": "0x028ed0535390148ca63afaff2748697afc17750917d0cb54d38a1c64e2a7e6a1",
      "transactionType": "CALL",
      "contractName": null,
      "contractAddress": "0x72441784AeAFDb42a26880FE4b6e17370029a16c",
      "function": "mint(address,uint256)",
      "arguments": [
        "0xd3E7c6032Cb71BAc39C2c16Df41b5364b6158de5",
        "100000000"
      ],
      "transaction": {
        "type": "0x02",
        "from": "0xd3e7c6032cb71bac39c2c16df41b5364b6158de5",
        "to": "0x72441784aeafdb42a26880fe4b6e17370029a16c",
        "gas": "0xd002",
        "value": "0x0",
        "data": "0x40c10f19000000000000000000000000d3e7c6032cb71bac39c2c16df41b5364b6158de50000000000000000000000000000000000000000000000000000000005f5e100",
        "nonce": "0x136",
        "accessList": []
      },
      "additionalContracts": [],
      "isFixedGasLimit": false
    },
    {
      "hash": "0x26de1b6ab77d27a901e98d77c59ecfc2dd70b60085e25c9f14e818cf5b546197",
      "transactionType": "CALL",
      "contractName": null,
      "contractAddress": "0x26Eef5ADFd6d0524c5C256930afB0C18BfAb4edd",
      "function": "depositUSDTandReciveToken(uint256)",
      "arguments": [
        "1000000"
      ],
      "transaction": {
        "type": "0x02",
        "from": "0xd3e7c6032cb71bac39c2c16df41b5364b6158de5",
        "to": "0x26eef5adfd6d0524c5c256930afb0c18bfab4edd",
        "gas": "0x24340",
        "value": "0x0",
        "data": "0xd148e25f00000000000000000000000000000000000000000000000000000000000f4240",
        "nonce": "0x137",
        "accessList": []
      },
      "additionalContracts": [],
      "isFixedGasLimit": false
    }
  ],
  "receipts": [
    {
      "transactionHash": "0xfccc08f38bd3a60213958f718d339be82c7ec83c0152039e190b33c3be6a24e5",
      "transactionIndex": "0x1b",
      "blockHash": "0xcf97c3329e6d8f5dd512880f93425d96ba2d81540877d1d410f89cc2b5601577",
      "blockNumber": "0x58f712",
      "from": "0xd3E7c6032Cb71BAc39C2c16Df41b5364b6158de5",
      "to": "0x3A282826128170Bfff3c9a60b863a06138850222",
      "cumulativeGasUsed": "0x2310b9",
      "gasUsed": "0x7152",
      "contractAddress": null,
      "logs": [],
      "status": "0x1",
      "logsBloom": "0x00000000000000000000000000000000000000000000000000000000000000000000000000000000000000000000000000000000000000000000000000000000000000000000000000000000000000000000000000000000000000000000000000000000000000000000000000000000000000000000000000000000000000000000000000000000000000000000000000000000000000000000000000000000000000000000000000000000000000000000000000000000000000000000000000000000000000000000000000000000000000000000000000000000000000000000000000000000000000000000000000000000000000000000000000000000",
      "type": "0x2",
      "effectiveGasPrice": "0x51fc8dc33"
    },
    {
      "transactionHash": "0x41895522fad112a22f88a8910a5ab8990bcdfc3e7694af4907844dc7899fbcf9",
      "transactionIndex": "0x1c",
      "blockHash": "0xcf97c3329e6d8f5dd512880f93425d96ba2d81540877d1d410f89cc2b5601577",
      "blockNumber": "0x58f712",
      "from": "0xd3E7c6032Cb71BAc39C2c16Df41b5364b6158de5",
      "to": "0x88722fe08849E91eD6dA694B62EFD37885c5dBFd",
      "cumulativeGasUsed": "0x23e1f0",
      "gasUsed": "0xd137",
      "contractAddress": null,
      "logs": [
        {
          "address": "0x88722fe08849E91eD6dA694B62EFD37885c5dBFd",
          "topics": [
            "0xddf252ad1be2c89b69c2b068fc378daa952ba7f163c4a11628f55a4df523b3ef",
            "0x0000000000000000000000000000000000000000000000000000000000000000",
            "0x00000000000000000000000026eef5adfd6d0524c5c256930afb0c18bfab4edd"
          ],
          "data": "0x0000000000000000000000000000000000000000000000056bc75e2d63100000",
          "blockHash": "0xcf97c3329e6d8f5dd512880f93425d96ba2d81540877d1d410f89cc2b5601577",
          "blockNumber": "0x58f712",
          "transactionHash": "0x41895522fad112a22f88a8910a5ab8990bcdfc3e7694af4907844dc7899fbcf9",
          "transactionIndex": "0x1c",
          "logIndex": "0x30",
          "removed": false
        }
      ],
      "status": "0x1",
      "logsBloom": "0x00000000000000000000000000000000000000000000000000000000000000000000000000000000000000000000000000000000000000000000000000000000000000000000000000000008000000000000002000000000000000000000010000000000020000000000000000000800000000000000000000000010000000000000000000000000000000000000000000000000000000000000000000000000000000000000000000000000000000000000000000000000000000000000000000000002000000000000000000000000000000000000000000000000000020000000000000080000000200000000000000000000040020000000000000000000",
      "type": "0x2",
      "effectiveGasPrice": "0x51fc8dc33"
    },
    {
      "transactionHash": "0x8a4b6dc0e64244fabbce67622eb2c473cd40de78b8d46adf2cde6f2d06c49636",
      "transactionIndex": "0x1d",
      "blockHash": "0xcf97c3329e6d8f5dd512880f93425d96ba2d81540877d1d410f89cc2b5601577",
      "blockNumber": "0x58f712",
      "from": "0xd3E7c6032Cb71BAc39C2c16Df41b5364b6158de5",
      "to": "0x72441784AeAFDb42a26880FE4b6e17370029a16c",
      "cumulativeGasUsed": "0x249702",
      "gasUsed": "0xb512",
      "contractAddress": null,
      "logs": [
        {
          "address": "0x72441784AeAFDb42a26880FE4b6e17370029a16c",
          "topics": [
            "0x8c5be1e5ebec7d5bd14f71427d1e84f3dd0314c0f7b2291e5b200ac8c7c3b925",
            "0x000000000000000000000000d3e7c6032cb71bac39c2c16df41b5364b6158de5",
            "0x00000000000000000000000026eef5adfd6d0524c5c256930afb0c18bfab4edd"
          ],
          "data": "0x0000000000000000000000000000000000000000000000000000000005f5e100",
          "blockHash": "0xcf97c3329e6d8f5dd512880f93425d96ba2d81540877d1d410f89cc2b5601577",
          "blockNumber": "0x58f712",
          "transactionHash": "0x8a4b6dc0e64244fabbce67622eb2c473cd40de78b8d46adf2cde6f2d06c49636",
          "transactionIndex": "0x1d",
          "logIndex": "0x31",
          "removed": false
        }
      ],
      "status": "0x1",
      "logsBloom": "0x00000000000000000000000000000000000000000000000000000800000000000000000000000000000000000000000000000000000000000000000000200000000000040000000000000000000000100000002000000000000000000000000000000000000000000000000000000000000000000000000000000000000000000000000000000000000000000000000000000000000000000000000000000000020000000000000000000000000000000000000004000000000000000000000000000000400000000000000000000000000000000000000000000000000000000010000000080000000000000000000000000000040020000000000000000000",
      "type": "0x2",
      "effectiveGasPrice": "0x51fc8dc33"
    },
    {
      "transactionHash": "0x028ed0535390148ca63afaff2748697afc17750917d0cb54d38a1c64e2a7e6a1",
      "transactionIndex": "0x1e",
      "blockHash": "0xcf97c3329e6d8f5dd512880f93425d96ba2d81540877d1d410f89cc2b5601577",
      "blockNumber": "0x58f712",
      "from": "0xd3E7c6032Cb71BAc39C2c16Df41b5364b6158de5",
      "to": "0x72441784AeAFDb42a26880FE4b6e17370029a16c",
      "cumulativeGasUsed": "0x25253d",
      "gasUsed": "0x8e3b",
      "contractAddress": null,
      "logs": [
        {
          "address": "0x72441784AeAFDb42a26880FE4b6e17370029a16c",
          "topics": [
            "0xddf252ad1be2c89b69c2b068fc378daa952ba7f163c4a11628f55a4df523b3ef",
            "0x0000000000000000000000000000000000000000000000000000000000000000",
            "0x000000000000000000000000d3e7c6032cb71bac39c2c16df41b5364b6158de5"
          ],
          "data": "0x0000000000000000000000000000000000000000000000000000000005f5e100",
          "blockHash": "0xcf97c3329e6d8f5dd512880f93425d96ba2d81540877d1d410f89cc2b5601577",
          "blockNumber": "0x58f712",
          "transactionHash": "0x028ed0535390148ca63afaff2748697afc17750917d0cb54d38a1c64e2a7e6a1",
          "transactionIndex": "0x1e",
          "logIndex": "0x32",
          "removed": false
        }
      ],
      "status": "0x1",
      "logsBloom": "0x00000000000000000000000000000000000000000000000000000800000000000000000000000000000000000000000000000000000000000000000000000000000000040000000000000008000000100000002000000000000000000000000000000000020000000000000000000800000000000000000000000010000000000000000000000000000000000000000000000000000000000000000000000000000000000000000000000000000000000000000004000000000000000000000000000002400000000000000000000000000000000000000000000000000020000000000000000000000000000000000000000000000000000000000000000000",
      "type": "0x2",
      "effectiveGasPrice": "0x51fc8dc33"
    },
    {
      "transactionHash": "0x26de1b6ab77d27a901e98d77c59ecfc2dd70b60085e25c9f14e818cf5b546197",
      "transactionIndex": "0x1f",
      "blockHash": "0xcf97c3329e6d8f5dd512880f93425d96ba2d81540877d1d410f89cc2b5601577",
      "blockNumber": "0x58f712",
      "from": "0xd3E7c6032Cb71BAc39C2c16Df41b5364b6158de5",
      "to": "0x26Eef5ADFd6d0524c5C256930afB0C18BfAb4edd",
      "cumulativeGasUsed": "0x26b14f",
      "gasUsed": "0x18c12",
      "contractAddress": null,
      "logs": [
        {
          "address": "0x72441784AeAFDb42a26880FE4b6e17370029a16c",
          "topics": [
            "0xddf252ad1be2c89b69c2b068fc378daa952ba7f163c4a11628f55a4df523b3ef",
            "0x000000000000000000000000d3e7c6032cb71bac39c2c16df41b5364b6158de5",
            "0x00000000000000000000000026eef5adfd6d0524c5c256930afb0c18bfab4edd"
          ],
          "data": "0x00000000000000000000000000000000000000000000000000000000000f4240",
          "blockHash": "0xcf97c3329e6d8f5dd512880f93425d96ba2d81540877d1d410f89cc2b5601577",
          "blockNumber": "0x58f712",
          "transactionHash": "0x26de1b6ab77d27a901e98d77c59ecfc2dd70b60085e25c9f14e818cf5b546197",
          "transactionIndex": "0x1f",
          "logIndex": "0x33",
          "removed": false
        },
        {
          "address": "0x88722fe08849E91eD6dA694B62EFD37885c5dBFd",
          "topics": [
            "0xddf252ad1be2c89b69c2b068fc378daa952ba7f163c4a11628f55a4df523b3ef",
            "0x00000000000000000000000026eef5adfd6d0524c5c256930afb0c18bfab4edd",
            "0x0000000000000000000000003a282826128170bfff3c9a60b863a06138850222"
          ],
          "data": "0x0000000000000000000000000000000000000000000000056bc75e2d63100000",
          "blockHash": "0xcf97c3329e6d8f5dd512880f93425d96ba2d81540877d1d410f89cc2b5601577",
          "blockNumber": "0x58f712",
          "transactionHash": "0x26de1b6ab77d27a901e98d77c59ecfc2dd70b60085e25c9f14e818cf5b546197",
          "transactionIndex": "0x1f",
          "logIndex": "0x34",
          "removed": false
        }
      ],
      "status": "0x1",
      "logsBloom": "0x00000000000000000000000000000000000000000000000000000800000000000000000000000000000000000000000000000000000000000000000000000000000000040000000000000008000000100000002000000000000000000000010000000000000000000000000000000000000000000800000000000010000000000000000000000000000000000000000200000000000000000000000000000000000000000000000000000000000000000000000004000000000000000000000000000002400000000000000000000000000000000000000000000000000000000000000000080000000200000000000000000000040020000080000000000000",
      "type": "0x2",
      "effectiveGasPrice": "0x51fc8dc33"
    }
  ],
  "libraries": [],
  "pending": [],
  "returns": {},
  "timestamp": 1714766989,
  "chain": 11155111,
  "commit": "f1da080"
}