{
  "transactions": [
    {
      "hash": "0xc810ece213ee98c742765c53cd23e6405821a2d1120f6332f1915bb7af9ae2d6",
      "transactionType": "CALL",
      "contractName": null,
      "contractAddress": "0x994a67837723B5828096295798b1A154E53b15f1",
      "function": "setDexAddress(address)",
      "arguments": [
        "0x318348C7eef9FbF7942Cea767696f6c05a08af41"
      ],
      "transaction": {
        "type": "0x02",
        "from": "0xd3e7c6032cb71bac39c2c16df41b5364b6158de5",
        "to": "0x994a67837723b5828096295798b1a154e53b15f1",
        "gas": "0xf8c8",
        "value": "0x0",
        "data": "0x26f9a952000000000000000000000000318348c7eef9fbf7942cea767696f6c05a08af41",
        "nonce": "0x13a",
        "accessList": []
      },
      "additionalContracts": [],
      "isFixedGasLimit": false
    },
    {
      "hash": "0x5efc9221cc598030bbcc77ea843192126b9b8a826145b8b59934c36339a6d8e9",
      "transactionType": "CALL",
      "contractName": null,
      "contractAddress": "0x88722fe08849E91eD6dA694B62EFD37885c5dBFd",
      "function": "mint(address,uint256)",
      "arguments": [
        "0x318348C7eef9FbF7942Cea767696f6c05a08af41",
        "100000000000000000000"
      ],
      "transaction": {
        "type": "0x02",
        "from": "0xd3e7c6032cb71bac39c2c16df41b5364b6158de5",
        "to": "0x88722fe08849e91ed6da694b62efd37885c5dbfd",
        "gas": "0x120f9",
        "value": "0x0",
        "data": "0x40c10f19000000000000000000000000318348c7eef9fbf7942cea767696f6c05a08af410000000000000000000000000000000000000000000000056bc75e2d63100000",
        "nonce": "0x13b",
        "accessList": []
      },
      "additionalContracts": [],
      "isFixedGasLimit": false
    },
    {
      "hash": "0x2e30529546bb4682458f3e985b758f921a712322d7e3b1c2a143f380e14fa437",
      "transactionType": "CALL",
      "contractName": null,
      "contractAddress": "0x94a9D9AC8a22534E3FaCa9F4e7F2E2cf85d5E4C8",
      "function": "approve(address,uint256)",
      "arguments": [
        "0x318348C7eef9FbF7942Cea767696f6c05a08af41",
        "100000000"
      ],
      "transaction": {
        "type": "0x02",
        "from": "0xd3e7c6032cb71bac39c2c16df41b5364b6158de5",
        "to": "0x94a9d9ac8a22534e3faca9f4e7f2e2cf85d5e4c8",
        "gas": "0xf959",
        "value": "0x0",
        "data": "0x095ea7b3000000000000000000000000318348c7eef9fbf7942cea767696f6c05a08af410000000000000000000000000000000000000000000000000000000005f5e100",
        "nonce": "0x13c",
        "accessList": []
      },
      "additionalContracts": [],
      "isFixedGasLimit": false
    },
    {
      "hash": "0xa3f91f799cd236d65505575c2c89e7c78898df075c8e66077eecfe2ad5c76664",
      "transactionType": "CALL",
      "contractName": null,
      "contractAddress": "0x318348C7eef9FbF7942Cea767696f6c05a08af41",
      "function": "depositUSDTandReciveToken(uint256)",
      "arguments": [
        "1000000"
      ],
      "transaction": {
        "type": "0x02",
        "from": "0xd3e7c6032cb71bac39c2c16df41b5364b6158de5",
        "to": "0x318348c7eef9fbf7942cea767696f6c05a08af41",
        "gas": "0x3044e",
        "value": "0x0",
        "data": "0xd148e25f00000000000000000000000000000000000000000000000000000000000f4240",
        "nonce": "0x13d",
        "accessList": []
      },
      "additionalContracts": [],
      "isFixedGasLimit": false
    }
  ],
  "receipts": [
    {
      "transactionHash": "0xc810ece213ee98c742765c53cd23e6405821a2d1120f6332f1915bb7af9ae2d6",
      "transactionIndex": "0xb",
      "blockHash": "0x65e06fa285c18c7182023d121151501697de10e59b053a6b846f3e0a8df09fee",
      "blockNumber": "0x593e9e",
      "from": "0xd3E7c6032Cb71BAc39C2c16Df41b5364b6158de5",
      "to": "0x994a67837723B5828096295798b1A154E53b15f1",
      "cumulativeGasUsed": "0x79e78",
      "gasUsed": "0xb41e",
      "contractAddress": null,
      "logs": [],
      "status": "0x1",
      "logsBloom": "0x00000000000000000000000000000000000000000000000000000000000000000000000000000000000000000000000000000000000000000000000000000000000000000000000000000000000000000000000000000000000000000000000000000000000000000000000000000000000000000000000000000000000000000000000000000000000000000000000000000000000000000000000000000000000000000000000000000000000000000000000000000000000000000000000000000000000000000000000000000000000000000000000000000000000000000000000000000000000000000000000000000000000000000000000000000000",
      "type": "0x2",
      "effectiveGasPrice": "0x10888c6b79"
    },
    {
      "transactionHash": "0x5efc9221cc598030bbcc77ea843192126b9b8a826145b8b59934c36339a6d8e9",
      "transactionIndex": "0xc",
      "blockHash": "0x65e06fa285c18c7182023d121151501697de10e59b053a6b846f3e0a8df09fee",
      "blockNumber": "0x593e9e",
      "from": "0xd3E7c6032Cb71BAc39C2c16Df41b5364b6158de5",
      "to": "0x88722fe08849E91eD6dA694B62EFD37885c5dBFd",
      "cumulativeGasUsed": "0x86faf",
      "gasUsed": "0xd137",
      "contractAddress": null,
      "logs": [
        {
          "address": "0x88722fe08849E91eD6dA694B62EFD37885c5dBFd",
          "topics": [
            "0xddf252ad1be2c89b69c2b068fc378daa952ba7f163c4a11628f55a4df523b3ef",
            "0x0000000000000000000000000000000000000000000000000000000000000000",
            "0x000000000000000000000000318348c7eef9fbf7942cea767696f6c05a08af41"
          ],
          "data": "0x0000000000000000000000000000000000000000000000056bc75e2d63100000",
          "blockHash": "0x65e06fa285c18c7182023d121151501697de10e59b053a6b846f3e0a8df09fee",
          "blockNumber": "0x593e9e",
          "transactionHash": "0x5efc9221cc598030bbcc77ea843192126b9b8a826145b8b59934c36339a6d8e9",
          "transactionIndex": "0xc",
          "logIndex": "0x4",
          "removed": false
        }
      ],
      "status": "0x1",
      "logsBloom": "0x00000000000000000000000000000000000000000000000000000000000000000000000000000000000000000000000000000000000000000000000000000000000000000000000000000008000000000000002000000000000000000000010000000000020000000000000000000800000000000000000000000010000000000000000000000000000000000000000000000000000000000000000000004000000000000000000000000000000000000000000000000000000000000000000000000002000000000040000000000000000000000000000000000000000020000000000000000000000200000000000000000000000000000000008000000000",
      "type": "0x2",
      "effectiveGasPrice": "0x10888c6b79"
    },
    {
      "transactionHash": "0x2e30529546bb4682458f3e985b758f921a712322d7e3b1c2a143f380e14fa437",
      "transactionIndex": "0xd",
      "blockHash": "0x65e06fa285c18c7182023d121151501697de10e59b053a6b846f3e0a8df09fee",
      "blockNumber": "0x593e9e",
      "from": "0xd3E7c6032Cb71BAc39C2c16Df41b5364b6158de5",
      "to": "0x94a9D9AC8a22534E3FaCa9F4e7F2E2cf85d5E4C8",
      "cumulativeGasUsed": "0x92436",
      "gasUsed": "0xb487",
      "contractAddress": null,
      "logs": [
        {
          "address": "0x94a9D9AC8a22534E3FaCa9F4e7F2E2cf85d5E4C8",
          "topics": [
            "0x8c5be1e5ebec7d5bd14f71427d1e84f3dd0314c0f7b2291e5b200ac8c7c3b925",
            "0x000000000000000000000000d3e7c6032cb71bac39c2c16df41b5364b6158de5",
            "0x000000000000000000000000318348c7eef9fbf7942cea767696f6c05a08af41"
          ],
          "data": "0x0000000000000000000000000000000000000000000000000000000005f5e100",
          "blockHash": "0x65e06fa285c18c7182023d121151501697de10e59b053a6b846f3e0a8df09fee",
          "blockNumber": "0x593e9e",
          "transactionHash": "0x2e30529546bb4682458f3e985b758f921a712322d7e3b1c2a143f380e14fa437",
          "transactionIndex": "0xd",
          "logIndex": "0x5",
          "removed": false
        }
      ],
      "status": "0x1",
      "logsBloom": "0x00000000000000000000000000000000000000000000000000000800000000000000000000000000000000000000000000000000000000000000000000200000000000000000000000000000000000000000002000000000000008000000000000000000000000000000000000000000000000000000000000000000000000000000000000000000000000000000000000000000000000000000000000004000020000000100000000004000000000000000000000000000000000000000000000000000400000000040000000000000000000000000000000000000000000000010000000000000000000000000000000000000000000000000008000000000",
      "type": "0x2",
      "effectiveGasPrice": "0x10888c6b79"
    },
    {
      "transactionHash": "0xa3f91f799cd236d65505575c2c89e7c78898df075c8e66077eecfe2ad5c76664",
      "transactionIndex": "0xe",
      "blockHash": "0x65e06fa285c18c7182023d121151501697de10e59b053a6b846f3e0a8df09fee",
      "blockNumber": "0x593e9e",
      "from": "0xd3E7c6032Cb71BAc39C2c16Df41b5364b6158de5",
      "to": "0x318348C7eef9FbF7942Cea767696f6c05a08af41",
      "cumulativeGasUsed": "0xb3449",
      "gasUsed": "0x21013",
      "contractAddress": null,
      "logs": [
        {
          "address": "0x94a9D9AC8a22534E3FaCa9F4e7F2E2cf85d5E4C8",
          "topics": [
            "0xddf252ad1be2c89b69c2b068fc378daa952ba7f163c4a11628f55a4df523b3ef",
            "0x000000000000000000000000d3e7c6032cb71bac39c2c16df41b5364b6158de5",
            "0x000000000000000000000000318348c7eef9fbf7942cea767696f6c05a08af41"
          ],
          "data": "0x00000000000000000000000000000000000000000000000000000000000f4240",
          "blockHash": "0x65e06fa285c18c7182023d121151501697de10e59b053a6b846f3e0a8df09fee",
          "blockNumber": "0x593e9e",
          "transactionHash": "0xa3f91f799cd236d65505575c2c89e7c78898df075c8e66077eecfe2ad5c76664",
          "transactionIndex": "0xe",
          "logIndex": "0x6",
          "removed": false
        },
        {
          "address": "0x94a9D9AC8a22534E3FaCa9F4e7F2E2cf85d5E4C8",
          "topics": [
            "0x8c5be1e5ebec7d5bd14f71427d1e84f3dd0314c0f7b2291e5b200ac8c7c3b925",
            "0x000000000000000000000000d3e7c6032cb71bac39c2c16df41b5364b6158de5",
            "0x000000000000000000000000318348c7eef9fbf7942cea767696f6c05a08af41"
          ],
          "data": "0x0000000000000000000000000000000000000000000000000000000005e69ec0",
          "blockHash": "0x65e06fa285c18c7182023d121151501697de10e59b053a6b846f3e0a8df09fee",
          "blockNumber": "0x593e9e",
          "transactionHash": "0xa3f91f799cd236d65505575c2c89e7c78898df075c8e66077eecfe2ad5c76664",
          "transactionIndex": "0xe",
          "logIndex": "0x7",
          "removed": false
        },
        {
          "address": "0x88722fe08849E91eD6dA694B62EFD37885c5dBFd",
          "topics": [
            "0xddf252ad1be2c89b69c2b068fc378daa952ba7f163c4a11628f55a4df523b3ef",
            "0x000000000000000000000000318348c7eef9fbf7942cea767696f6c05a08af41",
            "0x000000000000000000000000994a67837723b5828096295798b1a154e53b15f1"
          ],
          "data": "0x0000000000000000000000000000000000000000000000056bc75e2d63100000",
          "blockHash": "0x65e06fa285c18c7182023d121151501697de10e59b053a6b846f3e0a8df09fee",
          "blockNumber": "0x593e9e",
          "transactionHash": "0xa3f91f799cd236d65505575c2c89e7c78898df075c8e66077eecfe2ad5c76664",
          "transactionIndex": "0xe",
          "logIndex": "0x8",
          "removed": false
        }
      ],
      "status": "0x1",
      "logsBloom": "0x00000000000000000000000000000000000000000000000000000800000000000000000000000000000000000000000000000000000000000000000000200000000000000000000000000008000000000000002000000004000008000000010000000000000000000000000000000000000000000080000000000010000000000000000000000000000000000000000000000000080000000000000000004000020000000100000000004000000000000000000000000000000000000000000000000002400000000040000000000000000000000000000000000000000000000010000000000000000200000000000000000000000000000000008000000000",
      "type": "0x2",
      "effectiveGasPrice": "0x10888c6b79"
    }
  ],
  "libraries": [],
  "pending": [],
  "returns": {},
  "timestamp": 1715001604,
  "chain": 11155111,
  "commit": "cfa4449"
}