{
  "transactions": [
    {
      "hash": "0x81e8421657edf8d593f1d428848ba6c9ba8c9dbd62aab7463489abca477eb94c",
      "transactionType": "CALL",
      "contractName": null,
      "contractAddress": "0x3A282826128170Bfff3c9a60b863a06138850222",
      "function": "setDexAddress(address)",
      "arguments": [
        "0x5aCE7b0D24a0623517c96A527EEB6Ac315F2ce36"
      ],
      "transaction": {
        "type": "0x02",
        "from": "0xd3e7c6032cb71bac39c2c16df41b5364b6158de5",
        "to": "0x3a282826128170bfff3c9a60b863a06138850222",
        "gas": "0xa5ba",
        "value": "0x0",
        "data": "0x26f9a9520000000000000000000000005ace7b0d24a0623517c96a527eeb6ac315f2ce36",
        "nonce": "0x105",
        "accessList": []
      },
      "additionalContracts": [],
      "isFixedGasLimit": false
    }
  ],
  "receipts": [
    {
      "transactionHash": "0x81e8421657edf8d593f1d428848ba6c9ba8c9dbd62aab7463489abca477eb94c",
      "transactionIndex": "0x17",
      "blockHash": "0xf1cb5e689e36729a7a5fcabfc3255b133ec38056e97f6462976c2c67858f114b",
      "blockNumber": "0x58f589",
      "from": "0xd3E7c6032Cb71BAc39C2c16Df41b5364b6158de5",
      "to": "0x3A282826128170Bfff3c9a60b863a06138850222",
      "cumulativeGasUsed": "0x3fd76b",
      "gasUsed": "0x7152",
      "contractAddress": null,
      "logs": [],
      "status": "0x1",
      "logsBloom": "0x00000000000000000000000000000000000000000000000000000000000000000000000000000000000000000000000000000000000000000000000000000000000000000000000000000000000000000000000000000000000000000000000000000000000000000000000000000000000000000000000000000000000000000000000000000000000000000000000000000000000000000000000000000000000000000000000000000000000000000000000000000000000000000000000000000000000000000000000000000000000000000000000000000000000000000000000000000000000000000000000000000000000000000000000000000000",
      "type": "0x2",
      "effectiveGasPrice": "0x4e8df5cc8"
    }
  ],
  "libraries": [],
  "pending": [],
  "returns": {},
  "timestamp": 1714762086,
  "chain": 11155111,
  "commit": "f1da080"
}