{
  "transactions": [
    {
      "hash": "0x81c52f109e5a2baac45aa3cb8085f7f9021ad877aa12076a63987eefe2e09cdb",
      "transactionType": "CALL",
      "contractName": null,
      "contractAddress": "0x88722fe08849E91eD6dA694B62EFD37885c5dBFd",
      "function": "mint(address,uint256)",
      "arguments": [
        "0x1a6d276CC9D64f7F1128a1fdc4627A3e2D50EAcB",
        "100000000000000000000"
      ],
      "transaction": {
        "type": "0x02",
        "from": "0xd3e7c6032cb71bac39c2c16df41b5364b6158de5",
        "to": "0x88722fe08849e91ed6da694b62efd37885c5dbfd",
        "gas": "0x120f9",
        "value": "0x0",
        "data": "0x40c10f190000000000000000000000001a6d276cc9d64f7f1128a1fdc4627a3e2d50eacb0000000000000000000000000000000000000000000000056bc75e2d63100000",
        "nonce": "0x101",
        "accessList": []
      },
      "additionalContracts": [],
      "isFixedGasLimit": false
    }
  ],
  "receipts": [
    {
      "transactionHash": "0x81c52f109e5a2baac45aa3cb8085f7f9021ad877aa12076a63987eefe2e09cdb",
      "transactionIndex": "0xe",
      "blockHash": "0x3506e4892a930e2cef89a5cb1e4c67a7bb06cfe37f403d7324406cf3b642d501",
      "blockNumber": "0x58f528",
      "from": "0xd3E7c6032Cb71BAc39C2c16Df41b5364b6158de5",
      "to": "0x88722fe08849E91eD6dA694B62EFD37885c5dBFd",
      "cumulativeGasUsed": "0xb8f0c",
      "gasUsed": "0xd137",
      "contractAddress": null,
      "logs": [
        {
          "address": "0x88722fe08849E91eD6dA694B62EFD37885c5dBFd",
          "topics": [
            "0xddf252ad1be2c89b69c2b068fc378daa952ba7f163c4a11628f55a4df523b3ef",
            "0x0000000000000000000000000000000000000000000000000000000000000000",
            "0x0000000000000000000000001a6d276cc9d64f7f1128a1fdc4627a3e2d50eacb"
          ],
          "data": "0x0000000000000000000000000000000000000000000000056bc75e2d63100000",
          "blockHash": "0x3506e4892a930e2cef89a5cb1e4c67a7bb06cfe37f403d7324406cf3b642d501",
          "blockNumber": "0x58f528",
          "transactionHash": "0x81c52f109e5a2baac45aa3cb8085f7f9021ad877aa12076a63987eefe2e09cdb",
          "transactionIndex": "0xe",
          "logIndex": "0xe",
          "removed": false
        }
      ],
      "status": "0x1",
      "logsBloom": "0x00000000000000000000000000000000000000000000000000000000000000000000000000000000000000000000000000000000000000000000000000000000000000000000000000000008000000000000002000000000000000000000010000000000020000000000000000000800000000000000000000000010000000200000000000000000000000000000000000000000000000000000000000000000000000000000000000000000000000000000000000100000000000000000020000000002000000000000000000000000000000000000000000000000000020000000000000000000000200000000000000000000000000000000000000000000",
      "type": "0x2",
      "effectiveGasPrice": "0x525df32bd"
    }
  ],
  "libraries": [],
  "pending": [],
  "returns": {},
  "timestamp": 1714760837,
  "chain": 11155111,
  "commit": "f1da080"
}