{
  "transactions": [
    {
      "hash": "0x4df4104831bd96cb8e4ce81f45dd0520c59ab6d4b4ae38e1b8e415f221a8b4dd",
      "transactionType": "CALL",
      "contractName": null,
      "contractAddress": "0x3A282826128170Bfff3c9a60b863a06138850222",
      "function": "setDexAddress(address)",
      "arguments": [
        "0x7B44B5CdCeE8835cF3e8B3f28BD8Abd9733f8f40"
      ],
      "transaction": {
        "type": "0x02",
        "from": "0xd3e7c6032cb71bac39c2c16df41b5364b6158de5",
        "to": "0x3a282826128170bfff3c9a60b863a06138850222",
        "gas": "0xa5ba",
        "value": "0x0",
        "data": "0x26f9a9520000000000000000000000007b44b5cdcee8835cf3e8b3f28bd8abd9733f8f40",
        "nonce": "0x11d",
        "accessList": []
      },
      "additionalContracts": [],
      "isFixedGasLimit": false
    },
    {
      "hash": "0xe5d5174db2b1b7d821d2c2d264eff0a970afdc6ea79247d70e5aa6da9ce572b9",
      "transactionType": "CALL",
      "contractName": null,
      "contractAddress": "0x88722fe08849E91eD6dA694B62EFD37885c5dBFd",
      "function": "mint(address,uint256)",
      "arguments": [
        "0x7B44B5CdCeE8835cF3e8B3f28BD8Abd9733f8f40",
        "100000000000000000000"
      ],
      "transaction": {
        "type": "0x02",
        "from": "0xd3e7c6032cb71bac39c2c16df41b5364b6158de5",
        "to": "0x88722fe08849e91ed6da694b62efd37885c5dbfd",
        "gas": "0x120f9",
        "value": "0x0",
        "data": "0x40c10f190000000000000000000000007b44b5cdcee8835cf3e8b3f28bd8abd9733f8f400000000000000000000000000000000000000000000000056bc75e2d63100000",
        "nonce": "0x11e",
        "accessList": []
      },
      "additionalContracts": [],
      "isFixedGasLimit": false
    },
    {
      "hash": "0x9e0db9caa2dcd936eb965ea53348d82a79ed9d163fb6808c3bc39da16cef366d",
      "transactionType": "CALL",
      "contractName": null,
      "contractAddress": "0x72441784AeAFDb42a26880FE4b6e17370029a16c",
      "function": "approve(address,uint256)",
      "arguments": [
        "0x7B44B5CdCeE8835cF3e8B3f28BD8Abd9733f8f40",
        "100000000"
      ],
      "transaction": {
        "type": "0x02",
        "from": "0xd3e7c6032cb71bac39c2c16df41b5364b6158de5",
        "to": "0x72441784aeafdb42a26880fe4b6e17370029a16c",
        "gas": "0x108d0",
        "value": "0x0",
        "data": "0x095ea7b30000000000000000000000007b44b5cdcee8835cf3e8b3f28bd8abd9733f8f400000000000000000000000000000000000000000000000000000000005f5e100",
        "nonce": "0x11f",
        "accessList": []
      },
      "additionalContracts": [],
      "isFixedGasLimit": false
    },
    {
      "hash": "0x2881638d46cbd467f4fe2a882461773d4292edc1511a79aa1e9e4db11fbe24b1",
      "transactionType": "CALL",
      "contractName": null,
      "contractAddress": "0x72441784AeAFDb42a26880FE4b6e17370029a16c",
      "function": "mint(address,uint256)",
      "arguments": [
        "0xd3E7c6032Cb71BAc39C2c16Df41b5364b6158de5",
        "1000000"
      ],
      "transaction": {
        "type": "0x02",
        "from": "0xd3e7c6032cb71bac39c2c16df41b5364b6158de5",
        "to": "0x72441784aeafdb42a26880fe4b6e17370029a16c",
        "gas": "0x19364",
        "value": "0x0",
        "data": "0x40c10f19000000000000000000000000d3e7c6032cb71bac39c2c16df41b5364b6158de500000000000000000000000000000000000000000000000000000000000f4240",
        "nonce": "0x120",
        "accessList": []
      },
      "additionalContracts": [],
      "isFixedGasLimit": false
    }
  ],
  "receipts": [
    {
      "transactionHash": "0x4df4104831bd96cb8e4ce81f45dd0520c59ab6d4b4ae38e1b8e415f221a8b4dd",
      "transactionIndex": "0xa",
      "blockHash": "0xeae9333f747757712516f904fccb6042eba39d40656c8e56a2ef554ce25c53b9",
      "blockNumber": "0x58f683",
      "from": "0xd3E7c6032Cb71BAc39C2c16Df41b5364b6158de5",
      "to": "0x3A282826128170Bfff3c9a60b863a06138850222",
      "cumulativeGasUsed": "0xbbf81",
      "gasUsed": "0x7152",
      "contractAddress": null,
      "logs": [],
      "status": "0x1",
      "logsBloom": "0x00000000000000000000000000000000000000000000000000000000000000000000000000000000000000000000000000000000000000000000000000000000000000000000000000000000000000000000000000000000000000000000000000000000000000000000000000000000000000000000000000000000000000000000000000000000000000000000000000000000000000000000000000000000000000000000000000000000000000000000000000000000000000000000000000000000000000000000000000000000000000000000000000000000000000000000000000000000000000000000000000000000000000000000000000000000",
      "type": "0x2",
      "effectiveGasPrice": "0x2996bac71"
    },
    {
      "transactionHash": "0xe5d5174db2b1b7d821d2c2d264eff0a970afdc6ea79247d70e5aa6da9ce572b9",
      "transactionIndex": "0xb",
      "blockHash": "0xeae9333f747757712516f904fccb6042eba39d40656c8e56a2ef554ce25c53b9",
      "blockNumber": "0x58f683",
      "from": "0xd3E7c6032Cb71BAc39C2c16Df41b5364b6158de5",
      "to": "0x88722fe08849E91eD6dA694B62EFD37885c5dBFd",
      "cumulativeGasUsed": "0xc90b8",
      "gasUsed": "0xd137",
      "contractAddress": null,
      "logs": [
        {
          "address": "0x88722fe08849E91eD6dA694B62EFD37885c5dBFd",
          "topics": [
            "0xddf252ad1be2c89b69c2b068fc378daa952ba7f163c4a11628f55a4df523b3ef",
            "0x0000000000000000000000000000000000000000000000000000000000000000",
            "0x0000000000000000000000007b44b5cdcee8835cf3e8b3f28bd8abd9733f8f40"
          ],
          "data": "0x0000000000000000000000000000000000000000000000056bc75e2d63100000",
          "blockHash": "0xeae9333f747757712516f904fccb6042eba39d40656c8e56a2ef554ce25c53b9",
          "blockNumber": "0x58f683",
          "transactionHash": "0xe5d5174db2b1b7d821d2c2d264eff0a970afdc6ea79247d70e5aa6da9ce572b9",
          "transactionIndex": "0xb",
          "logIndex": "0x9",
          "removed": false
        }
      ],
      "status": "0x1",
      "logsBloom": "0x00000000000010000000000000000000000000000000800000000000000000000000000000000000000000000000000000000000000000000000000000000000000000000000000000000008000000000000002000000000080000000000010000000000020000000000000000000800000000000000000000000010000000000000000000000000000000000000000000000000000000000000000000000000000000000000000000000000000000000000000000000000000000000000000000000002000000000000000000000000000000000000000000000000000020000000000000000000000200000000000000000000000000000000000000000000",
      "type": "0x2",
      "effectiveGasPrice": "0x2996bac71"
    },
    {
      "transactionHash": "0x9e0db9caa2dcd936eb965ea53348d82a79ed9d163fb6808c3bc39da16cef366d",
      "transactionIndex": "0xc",
      "blockHash": "0xeae9333f747757712516f904fccb6042eba39d40656c8e56a2ef554ce25c53b9",
      "blockNumber": "0x58f683",
      "from": "0xd3E7c6032Cb71BAc39C2c16Df41b5364b6158de5",
      "to": "0x72441784AeAFDb42a26880FE4b6e17370029a16c",
      "cumulativeGasUsed": "0xd45ca",
      "gasUsed": "0xb512",
      "contractAddress": null,
      "logs": [
        {
          "address": "0x72441784AeAFDb42a26880FE4b6e17370029a16c",
          "topics": [
            "0x8c5be1e5ebec7d5bd14f71427d1e84f3dd0314c0f7b2291e5b200ac8c7c3b925",
            "0x000000000000000000000000d3e7c6032cb71bac39c2c16df41b5364b6158de5",
            "0x0000000000000000000000007b44b5cdcee8835cf3e8b3f28bd8abd9733f8f40"
          ],
          "data": "0x0000000000000000000000000000000000000000000000000000000005f5e100",
          "blockHash": "0xeae9333f747757712516f904fccb6042eba39d40656c8e56a2ef554ce25c53b9",
          "blockNumber": "0x58f683",
          "transactionHash": "0x9e0db9caa2dcd936eb965ea53348d82a79ed9d163fb6808c3bc39da16cef366d",
          "transactionIndex": "0xc",
          "logIndex": "0xa",
          "removed": false
        }
      ],
      "status": "0x1",
      "logsBloom": "0x00000000000010000000000000000000000000000000800000000800000000000000000000000000000000000000000000000000000000000000000000200000000000040000000000000000000000100000002000000000080000000000000000000000000000000000000000000000000000000000000000000000000000000000000000000000000000000000000000000000000000000000000000000000020000000000000000000000000000000000000004000000000000000000000000000000400000000000000000000000000000000000000000000000000000000010000000000000000000000000000000000000000000000000000000000000",
      "type": "0x2",
      "effectiveGasPrice": "0x2996bac71"
    },
    {
      "transactionHash": "0x2881638d46cbd467f4fe2a882461773d4292edc1511a79aa1e9e4db11fbe24b1",
      "transactionIndex": "0xd",
      "blockHash": "0xeae9333f747757712516f904fccb6042eba39d40656c8e56a2ef554ce25c53b9",
      "blockNumber": "0x58f683",
      "from": "0xd3E7c6032Cb71BAc39C2c16Df41b5364b6158de5",
      "to": "0x72441784AeAFDb42a26880FE4b6e17370029a16c",
      "cumulativeGasUsed": "0xe599d",
      "gasUsed": "0x113d3",
      "contractAddress": null,
      "logs": [
        {
          "address": "0x72441784AeAFDb42a26880FE4b6e17370029a16c",
          "topics": [
            "0xddf252ad1be2c89b69c2b068fc378daa952ba7f163c4a11628f55a4df523b3ef",
            "0x0000000000000000000000000000000000000000000000000000000000000000",
            "0x000000000000000000000000d3e7c6032cb71bac39c2c16df41b5364b6158de5"
          ],
          "data": "0x00000000000000000000000000000000000000000000000000000000000f4240",
          "blockHash": "0xeae9333f747757712516f904fccb6042eba39d40656c8e56a2ef554ce25c53b9",
          "blockNumber": "0x58f683",
          "transactionHash": "0x2881638d46cbd467f4fe2a882461773d4292edc1511a79aa1e9e4db11fbe24b1",
          "transactionIndex": "0xd",
          "logIndex": "0xb",
          "removed": false
        }
      ],
      "status": "0x1",
      "logsBloom": "0x00000000000000000000000000000000000000000000000000000800000000000000000000000000000000000000000000000000000000000000000000000000000000040000000000000008000000100000002000000000000000000000000000000000020000000000000000000800000000000000000000000010000000000000000000000000000000000000000000000000000000000000000000000000000000000000000000000000000000000000000004000000000000000000000000000002400000000000000000000000000000000000000000000000000020000000000000000000000000000000000000000000000000000000000000000000",
      "type": "0x2",
      "effectiveGasPrice": "0x2996bac71"
    }
  ],
  "libraries": [],
  "pending": [],
  "returns": {},
  "timestamp": 1714765178,
  "chain": 11155111,
  "commit": "f1da080"
}