{
  "transactions": [
    {
      "hash": "0x7829fda6841f8566b0ec1c934b4d7b6732365e8fed1e98da29bdd4e329997bec",
      "transactionType": "CALL",
      "contractName": null,
      "contractAddress": "0x88722fe08849E91eD6dA694B62EFD37885c5dBFd",
      "function": "mint(address,uint256)",
      "arguments": [
        "0x7B44B5CdCeE8835cF3e8B3f28BD8Abd9733f8f40",
        "100000000000000000000"
      ],
      "transaction": {
        "type": "0x02",
        "from": "0xd3e7c6032cb71bac39c2c16df41b5364b6158de5",
        "to": "0x88722fe08849e91ed6da694b62efd37885c5dbfd",
        "gas": "0xd048",
        "value": "0x0",
        "data": "0x40c10f190000000000000000000000007b44b5cdcee8835cf3e8b3f28bd8abd9733f8f400000000000000000000000000000000000000000000000056bc75e2d63100000",
        "nonce": "0x122",
        "accessList": []
      },
      "additionalContracts": [],
      "isFixedGasLimit": false
    },
    {
      "hash": "0x87283bb90649a4bcbeb5a1d4c89707786166d31e2f7bcf041b85d3208fbddadb",
      "transactionType": "CALL",
      "contractName": null,
      "contractAddress": "0x72441784AeAFDb42a26880FE4b6e17370029a16c",
      "function": "approve(address,uint256)",
      "arguments": [
        "0x7B44B5CdCeE8835cF3e8B3f28BD8Abd9733f8f40",
        "100000000"
      ],
      "transaction": {
        "type": "0x02",
        "from": "0xd3e7c6032cb71bac39c2c16df41b5364b6158de5",
        "to": "0x72441784aeafdb42a26880fe4b6e17370029a16c",
        "gas": "0x9dd6",
        "value": "0x0",
        "data": "0x095ea7b30000000000000000000000007b44b5cdcee8835cf3e8b3f28bd8abd9733f8f400000000000000000000000000000000000000000000000000000000005f5e100",
        "nonce": "0x123",
        "accessList": []
      },
      "additionalContracts": [],
      "isFixedGasLimit": false
    },
    {
      "hash": "0x772dbc04a58b19f0571d12a2987ac06950a585fa6c2aa00c03168cf370c2a226",
      "transactionType": "CALL",
      "contractName": null,
      "contractAddress": "0x72441784AeAFDb42a26880FE4b6e17370029a16c",
      "function": "mint(address,uint256)",
      "arguments": [
        "0xd3E7c6032Cb71BAc39C2c16Df41b5364b6158de5",
        "1000000"
      ],
      "transaction": {
        "type": "0x02",
        "from": "0xd3e7c6032cb71bac39c2c16df41b5364b6158de5",
        "to": "0x72441784aeafdb42a26880fe4b6e17370029a16c",
        "gas": "0xd002",
        "value": "0x0",
        "data": "0x40c10f19000000000000000000000000d3e7c6032cb71bac39c2c16df41b5364b6158de500000000000000000000000000000000000000000000000000000000000f4240",
        "nonce": "0x124",
        "accessList": []
      },
      "additionalContracts": [],
      "isFixedGasLimit": false
    },
    {
      "hash": "0x076b7d36ad7b4336f60b17c75b25e0fbbcb26aacb0dc58f5da9702a31a8c6eb1",
      "transactionType": "CALL",
      "contractName": null,
      "contractAddress": "0x7B44B5CdCeE8835cF3e8B3f28BD8Abd9733f8f40",
      "function": "depositUSDTandReciveToken(uint256)",
      "arguments": [
        "1000000"
      ],
      "transaction": {
        "type": "0x02",
        "from": "0xd3e7c6032cb71bac39c2c16df41b5364b6158de5",
        "to": "0x7b44b5cdcee8835cf3e8b3f28bd8abd9733f8f40",
        "gas": "0x200c2",
        "value": "0x0",
        "data": "0xd148e25f00000000000000000000000000000000000000000000000000000000000f4240",
        "nonce": "0x125",
        "accessList": []
      },
      "additionalContracts": [],
      "isFixedGasLimit": false
    }
  ],
  "receipts": [
    {
      "transactionHash": "0x7829fda6841f8566b0ec1c934b4d7b6732365e8fed1e98da29bdd4e329997bec",
      "transactionIndex": "0xf",
      "blockHash": "0xf6a0902935c4c7e1c1cd6a9efda06bbe5aec00ebabb4e3122ee8733df437c9f0",
      "blockNumber": "0x58f68e",
      "from": "0xd3E7c6032Cb71BAc39C2c16Df41b5364b6158de5",
      "to": "0x88722fe08849E91eD6dA694B62EFD37885c5dBFd",
      "cumulativeGasUsed": "0xf9f6b",
      "gasUsed": "0x8e6b",
      "contractAddress": null,
      "logs": [
        {
          "address": "0x88722fe08849E91eD6dA694B62EFD37885c5dBFd",
          "topics": [
            "0xddf252ad1be2c89b69c2b068fc378daa952ba7f163c4a11628f55a4df523b3ef",
            "0x0000000000000000000000000000000000000000000000000000000000000000",
            "0x0000000000000000000000007b44b5cdcee8835cf3e8b3f28bd8abd9733f8f40"
          ],
          "data": "0x0000000000000000000000000000000000000000000000056bc75e2d63100000",
          "blockHash": "0xf6a0902935c4c7e1c1cd6a9efda06bbe5aec00ebabb4e3122ee8733df437c9f0",
          "blockNumber": "0x58f68e",
          "transactionHash": "0x7829fda6841f8566b0ec1c934b4d7b6732365e8fed1e98da29bdd4e329997bec",
          "transactionIndex": "0xf",
          "logIndex": "0x15",
          "removed": false
        }
      ],
      "status": "0x1",
      "logsBloom": "0x00000000000010000000000000000000000000000000800000000000000000000000000000000000000000000000000000000000000000000000000000000000000000000000000000000008000000000000002000000000080000000000010000000000020000000000000000000800000000000000000000000010000000000000000000000000000000000000000000000000000000000000000000000000000000000000000000000000000000000000000000000000000000000000000000000002000000000000000000000000000000000000000000000000000020000000000000000000000200000000000000000000000000000000000000000000",
      "type": "0x2",
      "effectiveGasPrice": "0x2961d746b"
    },
    {
      "transactionHash": "0x87283bb90649a4bcbeb5a1d4c89707786166d31e2f7bcf041b85d3208fbddadb",
      "transactionIndex": "0xd",
      "blockHash": "0x0eb3c5ce2cade0e1405b2736f12ea6445635245eaf005cbddcada1916cb0ebca",
      "blockNumber": "0x58f68f",
      "from": "0xd3E7c6032Cb71BAc39C2c16Df41b5364b6158de5",
      "to": "0x72441784AeAFDb42a26880FE4b6e17370029a16c",
      "cumulativeGasUsed": "0xdc62b",
      "gasUsed": "0x7246",
      "contractAddress": null,
      "logs": [
        {
          "address": "0x72441784AeAFDb42a26880FE4b6e17370029a16c",
          "topics": [
            "0x8c5be1e5ebec7d5bd14f71427d1e84f3dd0314c0f7b2291e5b200ac8c7c3b925",
            "0x000000000000000000000000d3e7c6032cb71bac39c2c16df41b5364b6158de5",
            "0x0000000000000000000000007b44b5cdcee8835cf3e8b3f28bd8abd9733f8f40"
          ],
          "data": "0x0000000000000000000000000000000000000000000000000000000005f5e100",
          "blockHash": "0x0eb3c5ce2cade0e1405b2736f12ea6445635245eaf005cbddcada1916cb0ebca",
          "blockNumber": "0x58f68f",
          "transactionHash": "0x87283bb90649a4bcbeb5a1d4c89707786166d31e2f7bcf041b85d3208fbddadb",
          "transactionIndex": "0xd",
          "logIndex": "0x16",
          "removed": false
        }
      ],
      "status": "0x1",
      "logsBloom": "0x00000000000010000000000000000000000000000000800000000800000000000000000000000000000000000000000000000000000000000000000000200000000000040000000000000000000000100000002000000000080000000000000000000000000000000000000000000000000000000000000000000000000000000000000000000000000000000000000000000000000000000000000000000000020000000000000000000000000000000000000004000000000000000000000000000000400000000000000000000000000000000000000000000000000000000010000000000000000000000000000000000000000000000000000000000000",
      "type": "0x2",
      "effectiveGasPrice": "0x2a3d178ed"
    },
    {
      "transactionHash": "0x772dbc04a58b19f0571d12a2987ac06950a585fa6c2aa00c03168cf370c2a226",
      "transactionIndex": "0xe",
      "blockHash": "0x0eb3c5ce2cade0e1405b2736f12ea6445635245eaf005cbddcada1916cb0ebca",
      "blockNumber": "0x58f68f",
      "from": "0xd3E7c6032Cb71BAc39C2c16Df41b5364b6158de5",
      "to": "0x72441784AeAFDb42a26880FE4b6e17370029a16c",
      "cumulativeGasUsed": "0xe5466",
      "gasUsed": "0x8e3b",
      "contractAddress": null,
      "logs": [
        {
          "address": "0x72441784AeAFDb42a26880FE4b6e17370029a16c",
          "topics": [
            "0xddf252ad1be2c89b69c2b068fc378daa952ba7f163c4a11628f55a4df523b3ef",
            "0x0000000000000000000000000000000000000000000000000000000000000000",
            "0x000000000000000000000000d3e7c6032cb71bac39c2c16df41b5364b6158de5"
          ],
          "data": "0x00000000000000000000000000000000000000000000000000000000000f4240",
          "blockHash": "0x0eb3c5ce2cade0e1405b2736f12ea6445635245eaf005cbddcada1916cb0ebca",
          "blockNumber": "0x58f68f",
          "transactionHash": "0x772dbc04a58b19f0571d12a2987ac06950a585fa6c2aa00c03168cf370c2a226",
          "transactionIndex": "0xe",
          "logIndex": "0x17",
          "removed": false
        }
      ],
      "status": "0x1",
      "logsBloom": "0x00000000000000000000000000000000000000000000000000000800000000000000000000000000000000000000000000000000000000000000000000000000000000040000000000000008000000100000002000000000000000000000000000000000020000000000000000000800000000000000000000000010000000000000000000000000000000000000000000000000000000000000000000000000000000000000000000000000000000000000000004000000000000000000000000000002400000000000000000000000000000000000000000000000000020000000000000000000000000000000000000000000000000000000000000000000",
      "type": "0x2",
      "effectiveGasPrice": "0x2a3d178ed"
    },
    {
      "transactionHash": "0x076b7d36ad7b4336f60b17c75b25e0fbbcb26aacb0dc58f5da9702a31a8c6eb1",
      "transactionIndex": "0xf",
      "blockHash": "0x0eb3c5ce2cade0e1405b2736f12ea6445635245eaf005cbddcada1916cb0ebca",
      "blockNumber": "0x58f68f",
      "from": "0xd3E7c6032Cb71BAc39C2c16Df41b5364b6158de5",
      "to": "0x7B44B5CdCeE8835cF3e8B3f28BD8Abd9733f8f40",
      "cumulativeGasUsed": "0xfb301",
      "gasUsed": "0x15e9b",
      "contractAddress": null,
      "logs": [
        {
          "address": "0x72441784AeAFDb42a26880FE4b6e17370029a16c",
          "topics": [
            "0xddf252ad1be2c89b69c2b068fc378daa952ba7f163c4a11628f55a4df523b3ef",
            "0x000000000000000000000000d3e7c6032cb71bac39c2c16df41b5364b6158de5",
            "0x0000000000000000000000007b44b5cdcee8835cf3e8b3f28bd8abd9733f8f40"
          ],
          "data": "0x00000000000000000000000000000000000000000000000000000000000f4240",
          "blockHash": "0x0eb3c5ce2cade0e1405b2736f12ea6445635245eaf005cbddcada1916cb0ebca",
          "blockNumber": "0x58f68f",
          "transactionHash": "0x076b7d36ad7b4336f60b17c75b25e0fbbcb26aacb0dc58f5da9702a31a8c6eb1",
          "transactionIndex": "0xf",
          "logIndex": "0x18",
          "removed": false
        },
        {
          "address": "0x88722fe08849E91eD6dA694B62EFD37885c5dBFd",
          "topics": [
            "0xddf252ad1be2c89b69c2b068fc378daa952ba7f163c4a11628f55a4df523b3ef",
            "0x0000000000000000000000007b44b5cdcee8835cf3e8b3f28bd8abd9733f8f40",
            "0x0000000000000000000000003a282826128170bfff3c9a60b863a06138850222"
          ],
          "data": "0x0000000000000000000000000000000000000000000000056bc75e2d63100000",
          "blockHash": "0x0eb3c5ce2cade0e1405b2736f12ea6445635245eaf005cbddcada1916cb0ebca",
          "blockNumber": "0x58f68f",
          "transactionHash": "0x076b7d36ad7b4336f60b17c75b25e0fbbcb26aacb0dc58f5da9702a31a8c6eb1",
          "transactionIndex": "0xf",
          "logIndex": "0x19",
          "removed": false
        }
      ],
      "status": "0x1",
      "logsBloom": "0x00000000000010000000000000000000000000000000800000000800000000000000000000000000000000000000000000000000000000000000000000000000000000040000000000000008000000100000002000000000080000000000010000000000000000000000000000000000000000000800000000000010000000000000000000000000000000000000000200000000000000000000000000000000000000000000000000000000000000000000000004000000000000000000000000000002400000000000000000000000000000000000000000000000000000000000000000000000000200000000000000000000000000000080000000000000",
      "type": "0x2",
      "effectiveGasPrice": "0x2a3d178ed"
    }
  ],
  "libraries": [],
  "pending": [],
  "returns": {},
  "timestamp": 1714765350,
  "chain": 11155111,
  "commit": "f1da080"
}