{
  "transactions": [
    {
      "hash": "0x75ffbfd22a3adf6586727d076aac9f68fb30a4b65ded9c55c381e717963b457c",
      "transactionType": "CALL",
      "contractName": null,
      "contractAddress": "0x88722fe08849E91eD6dA694B62EFD37885c5dBFd",
      "function": "mint(address,uint256)",
      "arguments": [
        "0x4668b9f52b516B5CB0F0B99cb854cd641cb690CD",
        "100000000000000000000"
      ],
      "transaction": {
        "type": "0x02",
        "from": "0xd3e7c6032cb71bac39c2c16df41b5364b6158de5",
        "to": "0x88722fe08849e91ed6da694b62efd37885c5dbfd",
        "gas": "0x193aa",
        "value": "0x0",
        "data": "0x40c10f190000000000000000000000004668b9f52b516b5cb0f0b99cb854cd641cb690cd0000000000000000000000000000000000000000000000056bc75e2d63100000",
        "nonce": "0xfa",
        "accessList": []
      },
      "additionalContracts": [],
      "isFixedGasLimit": false
    },
    {
      "hash": "0xbcf220eaaff44fc1e1296f195347d28511e751df486ccc43f8e30a2419eba819",
      "transactionType": "CALL",
      "contractName": null,
      "contractAddress": "0x47D45596EA7abBfA045a92dC16A29595fE54c8F8",
      "function": "mint(address,uint256)",
      "arguments": [
        "0xd3E7c6032Cb71BAc39C2c16Df41b5364b6158de5",
        "1000000"
      ],
      "transaction": {
        "type": "0x02",
        "from": "0xd3e7c6032cb71bac39c2c16df41b5364b6158de5",
        "to": "0x47d45596ea7abbfa045a92dc16a29595fe54c8f8",
        "gas": "0x19364",
        "value": "0x0",
        "data": "0x40c10f19000000000000000000000000d3e7c6032cb71bac39c2c16df41b5364b6158de500000000000000000000000000000000000000000000000000000000000f4240",
        "nonce": "0xfb",
        "accessList": []
      },
      "additionalContracts": [],
      "isFixedGasLimit": false
    },
    {
      "hash": "0xcf9ea65ca8f8691fbb447559eaf7475a179e7c7209fc249eb66f611100e86b09",
      "transactionType": "CALL",
      "contractName": null,
      "contractAddress": "0x47D45596EA7abBfA045a92dC16A29595fE54c8F8",
      "function": "approve(address,uint256)",
      "arguments": [
        "0xd3E7c6032Cb71BAc39C2c16Df41b5364b6158de5",
        "1000000"
      ],
      "transaction": {
        "type": "0x02",
        "from": "0xd3e7c6032cb71bac39c2c16df41b5364b6158de5",
        "to": "0x47d45596ea7abbfa045a92dc16a29595fe54c8f8",
        "gas": "0x108d0",
        "value": "0x0",
        "data": "0x095ea7b3000000000000000000000000d3e7c6032cb71bac39c2c16df41b5364b6158de500000000000000000000000000000000000000000000000000000000000f4240",
        "nonce": "0xfc",
        "accessList": []
      },
      "additionalContracts": [],
      "isFixedGasLimit": false
    }
  ],
  "receipts": [
    {
      "transactionHash": "0x75ffbfd22a3adf6586727d076aac9f68fb30a4b65ded9c55c381e717963b457c",
      "transactionIndex": "0x6",
      "blockHash": "0x5cb74942a606e7c0dc7e06c2d941c84eeeec5e9174c1b1e0d6d7a385da9ecbb1",
      "blockNumber": "0x58f4c8",
      "from": "0xd3E7c6032Cb71BAc39C2c16Df41b5364b6158de5",
      "to": "0x88722fe08849E91eD6dA694B62EFD37885c5dBFd",
      "cumulativeGasUsed": "0x1a3ff4",
      "gasUsed": "0x11403",
      "contractAddress": null,
      "logs": [
        {
          "address": "0x88722fe08849E91eD6dA694B62EFD37885c5dBFd",
          "topics": [
            "0xddf252ad1be2c89b69c2b068fc378daa952ba7f163c4a11628f55a4df523b3ef",
            "0x0000000000000000000000000000000000000000000000000000000000000000",
            "0x0000000000000000000000004668b9f52b516b5cb0f0b99cb854cd641cb690cd"
          ],
          "data": "0x0000000000000000000000000000000000000000000000056bc75e2d63100000",
          "blockHash": "0x5cb74942a606e7c0dc7e06c2d941c84eeeec5e9174c1b1e0d6d7a385da9ecbb1",
          "blockNumber": "0x58f4c8",
          "transactionHash": "0x75ffbfd22a3adf6586727d076aac9f68fb30a4b65ded9c55c381e717963b457c",
          "transactionIndex": "0x6",
          "logIndex": "0xa",
          "removed": false
        }
      ],
      "status": "0x1",
      "logsBloom": "0x00000000000000000020000000000200000000000000000000000000000000000000000000000000000000000000000000000000000000000000000000000000000000000000000000000008000000000000002000000000000000000000010000000000020000000000000000000800000000000000000000000010000000000000000000000000000000000000000000000000000000000000000000000000000000000000000000000000000002000000000000000000000000000000000000000002000000000000000000000000000000000000000000000000000020000000000000000000000200000000000000000000000000000000000000000000",
      "type": "0x2",
      "effectiveGasPrice": "0x80bc6daa5"
    },
    {
      "transactionHash": "0xbcf220eaaff44fc1e1296f195347d28511e751df486ccc43f8e30a2419eba819",
      "transactionIndex": "0x7",
      "blockHash": "0x5cb74942a606e7c0dc7e06c2d941c84eeeec5e9174c1b1e0d6d7a385da9ecbb1",
      "blockNumber": "0x58f4c8",
      "from": "0xd3E7c6032Cb71BAc39C2c16Df41b5364b6158de5",
      "to": "0x47D45596EA7abBfA045a92dC16A29595fE54c8F8",
      "cumulativeGasUsed": "0x1b53c7",
      "gasUsed": "0x113d3",
      "contractAddress": null,
      "logs": [
        {
          "address": "0x47D45596EA7abBfA045a92dC16A29595fE54c8F8",
          "topics": [
            "0xddf252ad1be2c89b69c2b068fc378daa952ba7f163c4a11628f55a4df523b3ef",
            "0x0000000000000000000000000000000000000000000000000000000000000000",
            "0x000000000000000000000000d3e7c6032cb71bac39c2c16df41b5364b6158de5"
          ],
          "data": "0x00000000000000000000000000000000000000000000000000000000000f4240",
          "blockHash": "0x5cb74942a606e7c0dc7e06c2d941c84eeeec5e9174c1b1e0d6d7a385da9ecbb1",
          "blockNumber": "0x58f4c8",
          "transactionHash": "0xbcf220eaaff44fc1e1296f195347d28511e751df486ccc43f8e30a2419eba819",
          "transactionIndex": "0x7",
          "logIndex": "0xb",
          "removed": false
        }
      ],
      "status": "0x1",
      "logsBloom": "0x00000000000000000000000000000000000000000000000000000800000000000000000000000000000000000000000000000000000000000000000000000000000000008000000000000008000000000000002000000000000000000000000000000000020000000000000000000800000000000000000000000010000000000000000000000001000000000000000000000000000000000000000000000000000000000000000000000000000000000000000000000000000001000000000000000002400000000000000000000000000000000000000000000000000020000000000000000000000000000000000000000000000000000000000000000000",
      "type": "0x2",
      "effectiveGasPrice": "0x80bc6daa5"
    },
    {
      "transactionHash": "0xcf9ea65ca8f8691fbb447559eaf7475a179e7c7209fc249eb66f611100e86b09",
      "transactionIndex": "0x8",
      "blockHash": "0x5cb74942a606e7c0dc7e06c2d941c84eeeec5e9174c1b1e0d6d7a385da9ecbb1",
      "blockNumber": "0x58f4c8",
      "from": "0xd3E7c6032Cb71BAc39C2c16Df41b5364b6158de5",
      "to": "0x47D45596EA7abBfA045a92dC16A29595fE54c8F8",
      "cumulativeGasUsed": "0x1c08d9",
      "gasUsed": "0xb512",
      "contractAddress": null,
      "logs": [
        {
          "address": "0x47D45596EA7abBfA045a92dC16A29595fE54c8F8",
          "topics": [
            "0x8c5be1e5ebec7d5bd14f71427d1e84f3dd0314c0f7b2291e5b200ac8c7c3b925",
            "0x000000000000000000000000d3e7c6032cb71bac39c2c16df41b5364b6158de5",
            "0x000000000000000000000000d3e7c6032cb71bac39c2c16df41b5364b6158de5"
          ],
          "data": "0x00000000000000000000000000000000000000000000000000000000000f4240",
          "blockHash": "0x5cb74942a606e7c0dc7e06c2d941c84eeeec5e9174c1b1e0d6d7a385da9ecbb1",
          "blockNumber": "0x58f4c8",
          "transactionHash": "0xcf9ea65ca8f8691fbb447559eaf7475a179e7c7209fc249eb66f611100e86b09",
          "transactionIndex": "0x8",
          "logIndex": "0xc",
          "removed": false
        }
      ],
      "status": "0x1",
      "logsBloom": "0x00000000000000000000000000000000000000000000000000000800000000000000000000000000000000000000000000000000000000000000000000200000000000008000000000000000000000000000002000000000000000000000000000000000000000000000000000000000000000000000000000000000000000000000000000000001000000000000000000000000000000000000000000000000020000000000000000000000000000000000000000000000000001000000000000000000400000000000000000000000000000000000000000000000000000000010000000000000000000000000000000000000000000000000000000000000",
      "type": "0x2",
      "effectiveGasPrice": "0x80bc6daa5"
    }
  ],
  "libraries": [],
  "pending": [],
  "returns": {},
  "timestamp": 1714759623,
  "chain": 11155111,
  "commit": "f1da080"
}