{
  "transactions": [
    {
      "hash": "0xf8126e67ca9ca206afe847c39b8140233011f076fd8a2052a6e857d5eccc3f62",
      "transactionType": "CALL",
      "contractName": null,
      "contractAddress": "0x3A282826128170Bfff3c9a60b863a06138850222",
      "function": "setDexAddress(address)",
      "arguments": [
        "0x7414C6a1Be4BCF9CB05f2c1310B4317296bC9F5A"
      ],
      "transaction": {
        "type": "0x02",
        "from": "0xd3e7c6032cb71bac39c2c16df41b5364b6158de5",
        "to": "0x3a282826128170bfff3c9a60b863a06138850222",
        "gas": "0xa5ba",
        "value": "0x0",
        "data": "0x26f9a9520000000000000000000000007414c6a1be4bcf9cb05f2c1310b4317296bc9f5a",
        "nonce": "0x128",
        "accessList": []
      },
      "additionalContracts": [],
      "isFixedGasLimit": false
    },
    {
      "hash": "0xd772523c75387aa57e6ef33e9abcebbc217977fe063a6319ebfea78f5161491e",
      "transactionType": "CALL",
      "contractName": null,
      "contractAddress": "0x88722fe08849E91eD6dA694B62EFD37885c5dBFd",
      "function": "mint(address,uint256)",
      "arguments": [
        "0x7414C6a1Be4BCF9CB05f2c1310B4317296bC9F5A",
        "100000000000000000000"
      ],
      "transaction": {
        "type": "0x02",
        "from": "0xd3e7c6032cb71bac39c2c16df41b5364b6158de5",
        "to": "0x88722fe08849e91ed6da694b62efd37885c5dbfd",
        "gas": "0x120f9",
        "value": "0x0",
        "data": "0x40c10f190000000000000000000000007414c6a1be4bcf9cb05f2c1310b4317296bc9f5a0000000000000000000000000000000000000000000000056bc75e2d63100000",
        "nonce": "0x129",
        "accessList": []
      },
      "additionalContracts": [],
      "isFixedGasLimit": false
    },
    {
      "hash": "0x680e055f4f710dac92da78bc0eac00eaf07ba51fa6c14cebbdccba8191c34eb6",
      "transactionType": "CALL",
      "contractName": null,
      "contractAddress": "0x72441784AeAFDb42a26880FE4b6e17370029a16c",
      "function": "approve(address,uint256)",
      "arguments": [
        "0x7414C6a1Be4BCF9CB05f2c1310B4317296bC9F5A",
        "100000000"
      ],
      "transaction": {
        "type": "0x02",
        "from": "0xd3e7c6032cb71bac39c2c16df41b5364b6158de5",
        "to": "0x72441784aeafdb42a26880fe4b6e17370029a16c",
        "gas": "0x108d0",
        "value": "0x0",
        "data": "0x095ea7b30000000000000000000000007414c6a1be4bcf9cb05f2c1310b4317296bc9f5a0000000000000000000000000000000000000000000000000000000005f5e100",
        "nonce": "0x12a",
        "accessList": []
      },
      "additionalContracts": [],
      "isFixedGasLimit": false
    },
    {
      "hash": "0x7b9b0bb35899b356d881aed18be9daa9874ebf9967a6b5fba000ce0103a61d24",
      "transactionType": "CALL",
      "contractName": null,
      "contractAddress": "0x72441784AeAFDb42a26880FE4b6e17370029a16c",
      "function": "mint(address,uint256)",
      "arguments": [
        "0xd3E7c6032Cb71BAc39C2c16Df41b5364b6158de5",
        "1000000"
      ],
      "transaction": {
        "type": "0x02",
        "from": "0xd3e7c6032cb71bac39c2c16df41b5364b6158de5",
        "to": "0x72441784aeafdb42a26880fe4b6e17370029a16c",
        "gas": "0xd002",
        "value": "0x0",
        "data": "0x40c10f19000000000000000000000000d3e7c6032cb71bac39c2c16df41b5364b6158de500000000000000000000000000000000000000000000000000000000000f4240",
        "nonce": "0x12b",
        "accessList": []
      },
      "additionalContracts": [],
      "isFixedGasLimit": false
    }
  ],
  "receipts": [
    {
      "transactionHash": "0xf8126e67ca9ca206afe847c39b8140233011f076fd8a2052a6e857d5eccc3f62",
      "transactionIndex": "0x5b",
      "blockHash": "0xb203b4f416d13f1158509bb3690118437a72d00e7aed32585d6ec40f736544b1",
      "blockNumber": "0x58f6c7",
      "from": "0xd3E7c6032Cb71BAc39C2c16Df41b5364b6158de5",
      "to": "0x3A282826128170Bfff3c9a60b863a06138850222",
      "cumulativeGasUsed": "0x7d9819",
      "gasUsed": "0x7152",
      "contractAddress": null,
      "logs": [],
      "status": "0x1",
      "logsBloom": "0x00000000000000000000000000000000000000000000000000000000000000000000000000000000000000000000000000000000000000000000000000000000000000000000000000000000000000000000000000000000000000000000000000000000000000000000000000000000000000000000000000000000000000000000000000000000000000000000000000000000000000000000000000000000000000000000000000000000000000000000000000000000000000000000000000000000000000000000000000000000000000000000000000000000000000000000000000000000000000000000000000000000000000000000000000000000",
      "type": "0x2",
      "effectiveGasPrice": "0x282353a05"
    },
    {
      "transactionHash": "0xd772523c75387aa57e6ef33e9abcebbc217977fe063a6319ebfea78f5161491e",
      "transactionIndex": "0x5c",
      "blockHash": "0xb203b4f416d13f1158509bb3690118437a72d00e7aed32585d6ec40f736544b1",
      "blockNumber": "0x58f6c7",
      "from": "0xd3E7c6032Cb71BAc39C2c16Df41b5364b6158de5",
      "to": "0x88722fe08849E91eD6dA694B62EFD37885c5dBFd",
      "cumulativeGasUsed": "0x7e6950",
      "gasUsed": "0xd137",
      "contractAddress": null,
      "logs": [
        {
          "address": "0x88722fe08849E91eD6dA694B62EFD37885c5dBFd",
          "topics": [
            "0xddf252ad1be2c89b69c2b068fc378daa952ba7f163c4a11628f55a4df523b3ef",
            "0x0000000000000000000000000000000000000000000000000000000000000000",
            "0x0000000000000000000000007414c6a1be4bcf9cb05f2c1310b4317296bc9f5a"
          ],
          "data": "0x0000000000000000000000000000000000000000000000056bc75e2d63100000",
          "blockHash": "0xb203b4f416d13f1158509bb3690118437a72d00e7aed32585d6ec40f736544b1",
          "blockNumber": "0x58f6c7",
          "transactionHash": "0xd772523c75387aa57e6ef33e9abcebbc217977fe063a6319ebfea78f5161491e",
          "transactionIndex": "0x5c",
          "logIndex": "0xaa",
          "removed": false
        }
      ],
      "status": "0x1",
      "logsBloom": "0x00000000000000000000000000000000000000000000000000000000000000000000000000000000000000000000000000000000000000000000000000000000000000000000000000000008000000000000002000000000000000000000010000000000020000000000000000000800000000000000000000000090000000000000000000000000000000000000000000000000000000000000000000000000000000000001000000000000000000000000000000000000000000000000000000000002000000000000000000000000000000000000000000000000000021000000000000000000000200000000000000000000000000000000000000000000",
      "type": "0x2",
      "effectiveGasPrice": "0x282353a05"
    },
    {
      "transactionHash": "0x680e055f4f710dac92da78bc0eac00eaf07ba51fa6c14cebbdccba8191c34eb6",
      "transactionIndex": "0x5d",
      "blockHash": "0xb203b4f416d13f1158509bb3690118437a72d00e7aed32585d6ec40f736544b1",
      "blockNumber": "0x58f6c7",
      "from": "0xd3E7c6032Cb71BAc39C2c16Df41b5364b6158de5",
      "to": "0x72441784AeAFDb42a26880FE4b6e17370029a16c",
      "cumulativeGasUsed": "0x7f1e62",
      "gasUsed": "0xb512",
      "contractAddress": null,
      "logs": [
        {
          "address": "0x72441784AeAFDb42a26880FE4b6e17370029a16c",
          "topics": [
            "0x8c5be1e5ebec7d5bd14f71427d1e84f3dd0314c0f7b2291e5b200ac8c7c3b925",
            "0x000000000000000000000000d3e7c6032cb71bac39c2c16df41b5364b6158de5",
            "0x0000000000000000000000007414c6a1be4bcf9cb05f2c1310b4317296bc9f5a"
          ],
          "data": "0x0000000000000000000000000000000000000000000000000000000005f5e100",
          "blockHash": "0xb203b4f416d13f1158509bb3690118437a72d00e7aed32585d6ec40f736544b1",
          "blockNumber": "0x58f6c7",
          "transactionHash": "0x680e055f4f710dac92da78bc0eac00eaf07ba51fa6c14cebbdccba8191c34eb6",
          "transactionIndex": "0x5d",
          "logIndex": "0xab",
          "removed": false
        }
      ],
      "status": "0x1",
      "logsBloom": "0x00000000000000000000000000000000000000000000000000000800000000000000000000000000000000000000000000000000000000000000000000200000000000040000000000000000000000100000002000000000000000000000000000000000000000000000000000000000000000000000000000000080000000000000000000000000000000000000000000000000000000000000000000000000020000000001000000000000000000000000000004000000000000000000000000000000400000000000000000000000000000000000000000000000000001000010000000000000000000000000000000000000000000000000000000000000",
      "type": "0x2",
      "effectiveGasPrice": "0x282353a05"
    },
    {
      "transactionHash": "0x7b9b0bb35899b356d881aed18be9daa9874ebf9967a6b5fba000ce0103a61d24",
      "transactionIndex": "0x5e",
      "blockHash": "0xb203b4f416d13f1158509bb3690118437a72d00e7aed32585d6ec40f736544b1",
      "blockNumber": "0x58f6c7",
      "from": "0xd3E7c6032Cb71BAc39C2c16Df41b5364b6158de5",
      "to": "0x72441784AeAFDb42a26880FE4b6e17370029a16c",
      "cumulativeGasUsed": "0x7fac9d",
      "gasUsed": "0x8e3b",
      "contractAddress": null,
      "logs": [
        {
          "address": "0x72441784AeAFDb42a26880FE4b6e17370029a16c",
          "topics": [
            "0xddf252ad1be2c89b69c2b068fc378daa952ba7f163c4a11628f55a4df523b3ef",
            "0x0000000000000000000000000000000000000000000000000000000000000000",
            "0x000000000000000000000000d3e7c6032cb71bac39c2c16df41b5364b6158de5"
          ],
          "data": "0x00000000000000000000000000000000000000000000000000000000000f4240",
          "blockHash": "0xb203b4f416d13f1158509bb3690118437a72d00e7aed32585d6ec40f736544b1",
          "blockNumber": "0x58f6c7",
          "transactionHash": "0x7b9b0bb35899b356d881aed18be9daa9874ebf9967a6b5fba000ce0103a61d24",
          "transactionIndex": "0x5e",
          "logIndex": "0xac",
          "removed": false
        }
      ],
      "status": "0x1",
      "logsBloom": "0x00000000000000000000000000000000000000000000000000000800000000000000000000000000000000000000000000000000000000000000000000000000000000040000000000000008000000100000002000000000000000000000000000000000020000000000000000000800000000000000000000000010000000000000000000000000000000000000000000000000000000000000000000000000000000000000000000000000000000000000000004000000000000000000000000000002400000000000000000000000000000000000000000000000000020000000000000000000000000000000000000000000000000000000000000000000",
      "type": "0x2",
      "effectiveGasPrice": "0x282353a05"
    }
  ],
  "libraries": [],
  "pending": [],
  "returns": {},
  "timestamp": 1714766070,
  "chain": 11155111,
  "commit": "f1da080"
}