{
  "transactions": [
    {
      "hash": "0x3988f5280ce0b952f67c0477062e3add4f083e0e06a6c91968f006690e04b1c2",
      "transactionType": "CALL",
      "contractName": null,
      "contractAddress": "0x3A282826128170Bfff3c9a60b863a06138850222",
      "function": "setDexAddress(address)",
      "arguments": [
        "0x68FB1f06163E5797A6Bc72F918bF01E60477Dd75"
      ],
      "transaction": {
        "type": "0x02",
        "from": "0xd3e7c6032cb71bac39c2c16df41b5364b6158de5",
        "to": "0x3a282826128170bfff3c9a60b863a06138850222",
        "gas": "0xa5ba",
        "value": "0x0",
        "data": "0x26f9a95200000000000000000000000068fb1f06163e5797a6bc72f918bf01e60477dd75",
        "nonce": "0x10d",
        "accessList": []
      },
      "additionalContracts": [],
      "isFixedGasLimit": false
    },
    {
      "hash": "0xbac984135278832b7aa9662d732aed52618e24a923c96d264e2f8fbb4ea860d0",
      "transactionType": "CALL",
      "contractName": null,
      "contractAddress": "0x88722fe08849E91eD6dA694B62EFD37885c5dBFd",
      "function": "mint(address,uint256)",
      "arguments": [
        "0x68FB1f06163E5797A6Bc72F918bF01E60477Dd75",
        "100000000000000000000"
      ],
      "transaction": {
        "type": "0x02",
        "from": "0xd3e7c6032cb71bac39c2c16df41b5364b6158de5",
        "to": "0x88722fe08849e91ed6da694b62efd37885c5dbfd",
        "gas": "0x120f9",
        "value": "0x0",
        "data": "0x40c10f1900000000000000000000000068fb1f06163e5797a6bc72f918bf01e60477dd750000000000000000000000000000000000000000000000056bc75e2d63100000",
        "nonce": "0x10e",
        "accessList": []
      },
      "additionalContracts": [],
      "isFixedGasLimit": false
    },
    {
      "hash": "0x348ef3a311dd595dc2c8db96254cc16453e4c768f0027b59b7e1eb7cb8f76e7e",
      "transactionType": "CALL",
      "contractName": null,
      "contractAddress": "0x94a9D9AC8a22534E3FaCa9F4e7F2E2cf85d5E4C8",
      "function": "approve(address,uint256)",
      "arguments": [
        "0x68FB1f06163E5797A6Bc72F918bF01E60477Dd75",
        "100000000"
      ],
      "transaction": {
        "type": "0x02",
        "from": "0xd3e7c6032cb71bac39c2c16df41b5364b6158de5",
        "to": "0x94a9d9ac8a22534e3faca9f4e7f2e2cf85d5e4c8",
        "gas": "0xf959",
        "value": "0x0",
        "data": "0x095ea7b300000000000000000000000068fb1f06163e5797a6bc72f918bf01e60477dd750000000000000000000000000000000000000000000000000000000005f5e100",
        "nonce": "0x10f",
        "accessList": []
      },
      "additionalContracts": [],
      "isFixedGasLimit": false
    }
  ],
  "receipts": [
    {
      "transactionHash": "0x3988f5280ce0b952f67c0477062e3add4f083e0e06a6c91968f006690e04b1c2",
      "transactionIndex": "0x19",
      "blockHash": "0x64f80f11ba8380f2bb4f308a03f9709d8fbd4de38f3940978970925c74545bc8",
      "blockNumber": "0x58f5b6",
      "from": "0xd3E7c6032Cb71BAc39C2c16Df41b5364b6158de5",
      "to": "0x3A282826128170Bfff3c9a60b863a06138850222",
      "cumulativeGasUsed": "0x1996a9",
      "gasUsed": "0x7152",
      "contractAddress": null,
      "logs": [],
      "status": "0x1",
      "logsBloom": "0x00000000000000000000000000000000000000000000000000000000000000000000000000000000000000000000000000000000000000000000000000000000000000000000000000000000000000000000000000000000000000000000000000000000000000000000000000000000000000000000000000000000000000000000000000000000000000000000000000000000000000000000000000000000000000000000000000000000000000000000000000000000000000000000000000000000000000000000000000000000000000000000000000000000000000000000000000000000000000000000000000000000000000000000000000000000",
      "type": "0x2",
      "effectiveGasPrice": "0x5056ae77f"
    },
    {
      "transactionHash": "0xbac984135278832b7aa9662d732aed52618e24a923c96d264e2f8fbb4ea860d0",
      "transactionIndex": "0x1a",
      "blockHash": "0x64f80f11ba8380f2bb4f308a03f9709d8fbd4de38f3940978970925c74545bc8",
      "blockNumber": "0x58f5b6",
      "from": "0xd3E7c6032Cb71BAc39C2c16Df41b5364b6158de5",
      "to": "0x88722fe08849E91eD6dA694B62EFD37885c5dBFd",
      "cumulativeGasUsed": "0x1a67e0",
      "gasUsed": "0xd137",
      "contractAddress": null,
      "logs": [
        {
          "address": "0x88722fe08849E91eD6dA694B62EFD37885c5dBFd",
          "topics": [
            "0xddf252ad1be2c89b69c2b068fc378daa952ba7f163c4a11628f55a4df523b3ef",
            "0x0000000000000000000000000000000000000000000000000000000000000000",
            "0x00000000000000000000000068fb1f06163e5797a6bc72f918bf01e60477dd75"
          ],
          "data": "0x0000000000000000000000000000000000000000000000056bc75e2d63100000",
          "blockHash": "0x64f80f11ba8380f2bb4f308a03f9709d8fbd4de38f3940978970925c74545bc8",
          "blockNumber": "0x58f5b6",
          "transactionHash": "0xbac984135278832b7aa9662d732aed52618e24a923c96d264e2f8fbb4ea860d0",
          "transactionIndex": "0x1a",
          "logIndex": "0x1e",
          "removed": false
        }
      ],
      "status": "0x1",
      "logsBloom": "0x00000000000000000000000000000000000000000000000000000000000000000000000000000000000000000000000000000000000000000000000000000000000000000080000000000008000000000000002000000000000000000000010000000000020000000000000000000800000000000000000000000010000000000000000000000000000000000000000000000000000000000000000000000000000000000000000000000000000080000000000000000000000000000000000000000002000000000000000000000000000000000000000000000000000020000000000000000001000200000000000000000000000000000000000000000000",
      "type": "0x2",
      "effectiveGasPrice": "0x5056ae77f"
    },
    {
      "transactionHash": "0x348ef3a311dd595dc2c8db96254cc16453e4c768f0027b59b7e1eb7cb8f76e7e",
      "transactionIndex": "0x1b",
      "blockHash": "0x64f80f11ba8380f2bb4f308a03f9709d8fbd4de38f3940978970925c74545bc8",
      "blockNumber": "0x58f5b6",
      "from": "0xd3E7c6032Cb71BAc39C2c16Df41b5364b6158de5",
      "to": "0x94a9D9AC8a22534E3FaCa9F4e7F2E2cf85d5E4C8",
      "cumulativeGasUsed": "0x1b1c67",
      "gasUsed": "0xb487",
      "contractAddress": null,
      "logs": [
        {
          "address": "0x94a9D9AC8a22534E3FaCa9F4e7F2E2cf85d5E4C8",
          "topics": [
            "0x8c5be1e5ebec7d5bd14f71427d1e84f3dd0314c0f7b2291e5b200ac8c7c3b925",
            "0x000000000000000000000000d3e7c6032cb71bac39c2c16df41b5364b6158de5",
            "0x00000000000000000000000068fb1f06163e5797a6bc72f918bf01e60477dd75"
          ],
          "data": "0x0000000000000000000000000000000000000000000000000000000005f5e100",
          "blockHash": "0x64f80f11ba8380f2bb4f308a03f9709d8fbd4de38f3940978970925c74545bc8",
          "blockNumber": "0x58f5b6",
          "transactionHash": "0x348ef3a311dd595dc2c8db96254cc16453e4c768f0027b59b7e1eb7cb8f76e7e",
          "transactionIndex": "0x1b",
          "logIndex": "0x1f",
          "removed": false
        }
      ],
      "status": "0x1",
      "logsBloom": "0x00000000000000000000000000000000000000000000000000000800000000000000000000000000000000000000000000000000000000000000000000200000000000000080000000000000000000000000002000000000000008000000000000000000000000000000000000000000000000000000000000000000000000000000000000000000000000000000000000000000000000000000000000000000020000000100000000004000000080000000000000000000000000000000000000000000400000000000000000000000000000000000000000000000000000000010000000000001000000000000000000000000000000000000000000000000",
      "type": "0x2",
      "effectiveGasPrice": "0x5056ae77f"
    }
  ],
  "libraries": [],
  "pending": [],
  "returns": {},
  "timestamp": 1714762625,
  "chain": 11155111,
  "commit": "f1da080"
}