{
  "transactions": [
    {
      "hash": "0xf1ddaf36eeed8379e7aa626d0b1541a52ce29533912755b545b72b5acc94bf7a",
      "transactionType": "CALL",
      "contractName": null,
      "contractAddress": "0x3A282826128170Bfff3c9a60b863a06138850222",
      "function": "setDexAddress(address)",
      "arguments": [
        "0x37909b99BF1F52feBC312060de48b77d3E537a78"
      ],
      "transaction": {
        "type": "0x02",
        "from": "0xd3e7c6032cb71bac39c2c16df41b5364b6158de5",
        "to": "0x3a282826128170bfff3c9a60b863a06138850222",
        "gas": "0xa5ba",
        "value": "0x0",
        "data": "0x26f9a95200000000000000000000000037909b99bf1f52febc312060de48b77d3e537a78",
        "nonce": "0x12e",
        "accessList": []
      },
      "additionalContracts": [],
      "isFixedGasLimit": false
    },
    {
      "hash": "0x2ea6a8d93f8f9ae97a31bf6f871d3f0300ed9a659263e119cc0c22381a11dab5",
      "transactionType": "CALL",
      "contractName": null,
      "contractAddress": "0x88722fe08849E91eD6dA694B62EFD37885c5dBFd",
      "function": "mint(address,uint256)",
      "arguments": [
        "0x37909b99BF1F52feBC312060de48b77d3E537a78",
        "100000000000000000000"
      ],
      "transaction": {
        "type": "0x02",
        "from": "0xd3e7c6032cb71bac39c2c16df41b5364b6158de5",
        "to": "0x88722fe08849e91ed6da694b62efd37885c5dbfd",
        "gas": "0x120f9",
        "value": "0x0",
        "data": "0x40c10f1900000000000000000000000037909b99bf1f52febc312060de48b77d3e537a780000000000000000000000000000000000000000000000056bc75e2d63100000",
        "nonce": "0x12f",
        "accessList": []
      },
      "additionalContracts": [],
      "isFixedGasLimit": false
    },
    {
      "hash": "0xdc984f4e3c9cfe13582939655e2c80956d4378756443d60ca5f8ea806e317392",
      "transactionType": "CALL",
      "contractName": null,
      "contractAddress": "0x72441784AeAFDb42a26880FE4b6e17370029a16c",
      "function": "approve(address,uint256)",
      "arguments": [
        "0x37909b99BF1F52feBC312060de48b77d3E537a78",
        "100000000"
      ],
      "transaction": {
        "type": "0x02",
        "from": "0xd3e7c6032cb71bac39c2c16df41b5364b6158de5",
        "to": "0x72441784aeafdb42a26880fe4b6e17370029a16c",
        "gas": "0x108d0",
        "value": "0x0",
        "data": "0x095ea7b300000000000000000000000037909b99bf1f52febc312060de48b77d3e537a780000000000000000000000000000000000000000000000000000000005f5e100",
        "nonce": "0x130",
        "accessList": []
      },
      "additionalContracts": [],
      "isFixedGasLimit": false
    },
    {
      "hash": "0xbc1067813ed684e45415ad234b14ea9ac6d6f9f0513803ea54da70b08c7b2a67",
      "transactionType": "CALL",
      "contractName": null,
      "contractAddress": "0x72441784AeAFDb42a26880FE4b6e17370029a16c",
      "function": "mint(address,uint256)",
      "arguments": [
        "0xd3E7c6032Cb71BAc39C2c16Df41b5364b6158de5",
        "100000000"
      ],
      "transaction": {
        "type": "0x02",
        "from": "0xd3e7c6032cb71bac39c2c16df41b5364b6158de5",
        "to": "0x72441784aeafdb42a26880fe4b6e17370029a16c",
        "gas": "0xd002",
        "value": "0x0",
        "data": "0x40c10f19000000000000000000000000d3e7c6032cb71bac39c2c16df41b5364b6158de50000000000000000000000000000000000000000000000000000000005f5e100",
        "nonce": "0x131",
        "accessList": []
      },
      "additionalContracts": [],
      "isFixedGasLimit": false
    }
  ],
  "receipts": [
    {
      "transactionHash": "0xf1ddaf36eeed8379e7aa626d0b1541a52ce29533912755b545b72b5acc94bf7a",
      "transactionIndex": "0x18",
      "blockHash": "0x7ee5811250b4eaf09ea15dfebfe0fc60c1a2ebab118f915f7aa8c1055b8089eb",
      "blockNumber": "0x58f6f0",
      "from": "0xd3E7c6032Cb71BAc39C2c16Df41b5364b6158de5",
      "to": "0x3A282826128170Bfff3c9a60b863a06138850222",
      "cumulativeGasUsed": "0x225d67",
      "gasUsed": "0x7152",
      "contractAddress": null,
      "logs": [],
      "status": "0x1",
      "logsBloom": "0x00000000000000000000000000000000000000000000000000000000000000000000000000000000000000000000000000000000000000000000000000000000000000000000000000000000000000000000000000000000000000000000000000000000000000000000000000000000000000000000000000000000000000000000000000000000000000000000000000000000000000000000000000000000000000000000000000000000000000000000000000000000000000000000000000000000000000000000000000000000000000000000000000000000000000000000000000000000000000000000000000000000000000000000000000000000",
      "type": "0x2",
      "effectiveGasPrice": "0x3ef3a305a"
    },
    {
      "transactionHash": "0x2ea6a8d93f8f9ae97a31bf6f871d3f0300ed9a659263e119cc0c22381a11dab5",
      "transactionIndex": "0x19",
      "blockHash": "0x7ee5811250b4eaf09ea15dfebfe0fc60c1a2ebab118f915f7aa8c1055b8089eb",
      "blockNumber": "0x58f6f0",
      "from": "0xd3E7c6032Cb71BAc39C2c16Df41b5364b6158de5",
      "to": "0x88722fe08849E91eD6dA694B62EFD37885c5dBFd",
      "cumulativeGasUsed": "0x232e9e",
      "gasUsed": "0xd137",
      "contractAddress": null,
      "logs": [
        {
          "address": "0x88722fe08849E91eD6dA694B62EFD37885c5dBFd",
          "topics": [
            "0xddf252ad1be2c89b69c2b068fc378daa952ba7f163c4a11628f55a4df523b3ef",
            "0x0000000000000000000000000000000000000000000000000000000000000000",
            "0x00000000000000000000000037909b99bf1f52febc312060de48b77d3e537a78"
          ],
          "data": "0x0000000000000000000000000000000000000000000000056bc75e2d63100000",
          "blockHash": "0x7ee5811250b4eaf09ea15dfebfe0fc60c1a2ebab118f915f7aa8c1055b8089eb",
          "blockNumber": "0x58f6f0",
          "transactionHash": "0x2ea6a8d93f8f9ae97a31bf6f871d3f0300ed9a659263e119cc0c22381a11dab5",
          "transactionIndex": "0x19",
          "logIndex": "0x32",
          "removed": false
        }
      ],
      "status": "0x1",
      "logsBloom": "0x00000000000000000000000000000000000000000000000000000000000000000100000000000000000000000000000000000000000000000000000000100000000000000000000000000008000000000000002000000000000000000000010000000000020000000000000000000800000000000000000000000010000000000000000000000000000000000000000000000000000000000000000000000000000000000000200000000000000000000000000000000000000000000000000000000002000000000000000000000000000000000000000000000000000020000000000000000000000200000000000000000000000000000000000000000000",
      "type": "0x2",
      "effectiveGasPrice": "0x3ef3a305a"
    },
    {
      "transactionHash": "0xdc984f4e3c9cfe13582939655e2c80956d4378756443d60ca5f8ea806e317392",
      "transactionIndex": "0x1a",
      "blockHash": "0x7ee5811250b4eaf09ea15dfebfe0fc60c1a2ebab118f915f7aa8c1055b8089eb",
      "blockNumber": "0x58f6f0",
      "from": "0xd3E7c6032Cb71BAc39C2c16Df41b5364b6158de5",
      "to": "0x72441784AeAFDb42a26880FE4b6e17370029a16c",
      "cumulativeGasUsed": "0x23e3b0",
      "gasUsed": "0xb512",
      "contractAddress": null,
      "logs": [
        {
          "address": "0x72441784AeAFDb42a26880FE4b6e17370029a16c",
          "topics": [
            "0x8c5be1e5ebec7d5bd14f71427d1e84f3dd0314c0f7b2291e5b200ac8c7c3b925",
            "0x000000000000000000000000d3e7c6032cb71bac39c2c16df41b5364b6158de5",
            "0x00000000000000000000000037909b99bf1f52febc312060de48b77d3e537a78"
          ],
          "data": "0x0000000000000000000000000000000000000000000000000000000005f5e100",
          "blockHash": "0x7ee5811250b4eaf09ea15dfebfe0fc60c1a2ebab118f915f7aa8c1055b8089eb",
          "blockNumber": "0x58f6f0",
          "transactionHash": "0xdc984f4e3c9cfe13582939655e2c80956d4378756443d60ca5f8ea806e317392",
          "transactionIndex": "0x1a",
          "logIndex": "0x33",
          "removed": false
        }
      ],
      "status": "0x1",
      "logsBloom": "0x00000000000000000000000000000000000000000000000000000800000000000100000000000000000000000000000000000000000000000000000000300000000000040000000000000000000000100000002000000000000000000000000000000000000000000000000000000000000000000000000000000000000000000000000000000000000000000000000000000000000000000000000000000000020000000000200000000000000000000000000004000000000000000000000000000000400000000000000000000000000000000000000000000000000000000010000000000000000000000000000000000000000000000000000000000000",
      "type": "0x2",
      "effectiveGasPrice": "0x3ef3a305a"
    },
    {
      "transactionHash": "0xbc1067813ed684e45415ad234b14ea9ac6d6f9f0513803ea54da70b08c7b2a67",
      "transactionIndex": "0x1b",
      "blockHash": "0x7ee5811250b4eaf09ea15dfebfe0fc60c1a2ebab118f915f7aa8c1055b8089eb",
      "blockNumber": "0x58f6f0",
      "from": "0xd3E7c6032Cb71BAc39C2c16Df41b5364b6158de5",
      "to": "0x72441784AeAFDb42a26880FE4b6e17370029a16c",
      "cumulativeGasUsed": "0x2471eb",
      "gasUsed": "0x8e3b",
      "contractAddress": null,
      "logs": [
        {
          "address": "0x72441784AeAFDb42a26880FE4b6e17370029a16c",
          "topics": [
            "0xddf252ad1be2c89b69c2b068fc378daa952ba7f163c4a11628f55a4df523b3ef",
            "0x0000000000000000000000000000000000000000000000000000000000000000",
            "0x000000000000000000000000d3e7c6032cb71bac39c2c16df41b5364b6158de5"
          ],
          "data": "0x0000000000000000000000000000000000000000000000000000000005f5e100",
          "blockHash": "0x7ee5811250b4eaf09ea15dfebfe0fc60c1a2ebab118f915f7aa8c1055b8089eb",
          "blockNumber": "0x58f6f0",
          "transactionHash": "0xbc1067813ed684e45415ad234b14ea9ac6d6f9f0513803ea54da70b08c7b2a67",
          "transactionIndex": "0x1b",
          "logIndex": "0x34",
          "removed": false
        }
      ],
      "status": "0x1",
      "logsBloom": "0x00000000000000000000000000000000000000000000000000000800000000000000000000000000000000000000000000000000000000000000000000000000000000040000000000000008000000100000002000000000000000000000000000000000020000000000000000000800000000000000000000000010000000000000000000000000000000000000000000000000000000000000000000000000000000000000000000000000000000000000000004000000000000000000000000000002400000000000000000000000000000000000000000000000000020000000000000000000000000000000000000000000000000000000000000000000",
      "type": "0x2",
      "effectiveGasPrice": "0x3ef3a305a"
    }
  ],
  "libraries": [],
  "pending": [],
  "returns": {},
  "timestamp": 1714766574,
  "chain": 11155111,
  "commit": "f1da080"
}