{
  "transactions": [
    {
      "hash": "0xb06df3e5543078856726b6f50e962a0e9ae3fa47f86a4590c049dbafeae819b8",
      "transactionType": "CALL",
      "contractName": null,
      "contractAddress": "0x47D45596EA7abBfA045a92dC16A29595fE54c8F8",
      "function": "approve(address,uint256)",
      "arguments": [
        "0x4668b9f52b516B5CB0F0B99cb854cd641cb690CD",
        "1000000"
      ],
      "transaction": {
        "type": "0x02",
        "from": "0xd3e7c6032cb71bac39c2c16df41b5364b6158de5",
        "to": "0x47d45596ea7abbfa045a92dc16a29595fe54c8f8",
        "gas": "0x108d0",
        "value": "0x0",
        "data": "0x095ea7b30000000000000000000000004668b9f52b516b5cb0f0b99cb854cd641cb690cd00000000000000000000000000000000000000000000000000000000000f4240",
        "nonce": "0xfd",
        "accessList": []
      },
      "additionalContracts": [],
      "isFixedGasLimit": false
    }
  ],
  "receipts": [
    {
      "transactionHash": "0xb06df3e5543078856726b6f50e962a0e9ae3fa47f86a4590c049dbafeae819b8",
      "transactionIndex": "0x14",
      "blockHash": "0x088a7dd7338876bf653a79025d8d8cad6c1bd02d88d2f16cde57c4e2e4303ece",
      "blockNumber": "0x58f4cb",
      "from": "0xd3E7c6032Cb71BAc39C2c16Df41b5364b6158de5",
      "to": "0x47D45596EA7abBfA045a92dC16A29595fE54c8F8",
      "cumulativeGasUsed": "0x1d21ac",
      "gasUsed": "0xb512",
      "contractAddress": null,
      "logs": [
        {
          "address": "0x47D45596EA7abBfA045a92dC16A29595fE54c8F8",
          "topics": [
            "0x8c5be1e5ebec7d5bd14f71427d1e84f3dd0314c0f7b2291e5b200ac8c7c3b925",
            "0x000000000000000000000000d3e7c6032cb71bac39c2c16df41b5364b6158de5",
            "0x0000000000000000000000004668b9f52b516b5cb0f0b99cb854cd641cb690cd"
          ],
          "data": "0x00000000000000000000000000000000000000000000000000000000000f4240",
          "blockHash": "0x088a7dd7338876bf653a79025d8d8cad6c1bd02d88d2f16cde57c4e2e4303ece",
          "blockNumber": "0x58f4cb",
          "transactionHash": "0xb06df3e5543078856726b6f50e962a0e9ae3fa47f86a4590c049dbafeae819b8",
          "transactionIndex": "0x14",
          "logIndex": "0x23",
          "removed": false
        }
      ],
      "status": "0x1",
      "logsBloom": "0x00000000000000000020000000000200000000000000000000000800000000000000000000000000000000000000000000000000000000000000000000200000000000008000000000000000000000000000002000000000000000000000000000000000000000000000000000000000000000000000000000000000000000000000000000000001000000000000000000000000000000000000000000000000020000000000000000000000000002000000000000000000000001000000000000000000400000000000000000000000000000000000000000000000000000000010000000000000000000000000000000000000000000000000000000000000",
      "type": "0x2",
      "effectiveGasPrice": "0x8196f4181"
    }
  ],
  "libraries": [],
  "pending": [],
  "returns": {},
  "timestamp": 1714759663,
  "chain": 11155111,
  "commit": "f1da080"
}