{
  "transactions": [
    {
      "hash": "0x95ca8cf1ed6746864611783c6ed0565af9d7679076133615b9474fb27154b558",
      "transactionType": "CALL",
      "contractName": null,
      "contractAddress": "0x3A282826128170Bfff3c9a60b863a06138850222",
      "function": "setDexAddress(address)",
      "arguments": [
        "0xfCC0fDFa58352a818bF6753F99220a4E2D87D6AE"
      ],
      "transaction": {
        "type": "0x02",
        "from": "0xd3e7c6032cb71bac39c2c16df41b5364b6158de5",
        "to": "0x3a282826128170bfff3c9a60b863a06138850222",
        "gas": "0xa5ba",
        "value": "0x0",
        "data": "0x26f9a952000000000000000000000000fcc0fdfa58352a818bf6753f99220a4e2d87d6ae",
        "nonce": "0x109",
        "accessList": []
      },
      "additionalContracts": [],
      "isFixedGasLimit": false
    },
    {
      "hash": "0x27249fca7e01c66e2e670d76b4a043495408ab6fec9b1531dd249d0bbee2cd3b",
      "transactionType": "CALL",
      "contractName": null,
      "contractAddress": "0x88722fe08849E91eD6dA694B62EFD37885c5dBFd",
      "function": "mint(address,uint256)",
      "arguments": [
        "0xfCC0fDFa58352a818bF6753F99220a4E2D87D6AE",
        "100000000000000000000"
      ],
      "transaction": {
        "type": "0x02",
        "from": "0xd3e7c6032cb71bac39c2c16df41b5364b6158de5",
        "to": "0x88722fe08849e91ed6da694b62efd37885c5dbfd",
        "gas": "0x120f9",
        "value": "0x0",
        "data": "0x40c10f19000000000000000000000000fcc0fdfa58352a818bf6753f99220a4e2d87d6ae0000000000000000000000000000000000000000000000056bc75e2d63100000",
        "nonce": "0x10a",
        "accessList": []
      },
      "additionalContracts": [],
      "isFixedGasLimit": false
    },
    {
      "hash": "0x6661f0067f5c79a163782bbea8f8cec92181844a7276bdc9058d2d350492ba23",
      "transactionType": "CALL",
      "contractName": null,
      "contractAddress": "0x94a9D9AC8a22534E3FaCa9F4e7F2E2cf85d5E4C8",
      "function": "approve(address,uint256)",
      "arguments": [
        "0xfCC0fDFa58352a818bF6753F99220a4E2D87D6AE",
        "100000000"
      ],
      "transaction": {
        "type": "0x02",
        "from": "0xd3e7c6032cb71bac39c2c16df41b5364b6158de5",
        "to": "0x94a9d9ac8a22534e3faca9f4e7f2e2cf85d5e4c8",
        "gas": "0xf959",
        "value": "0x0",
        "data": "0x095ea7b3000000000000000000000000fcc0fdfa58352a818bf6753f99220a4e2d87d6ae0000000000000000000000000000000000000000000000000000000005f5e100",
        "nonce": "0x10b",
        "accessList": []
      },
      "additionalContracts": [],
      "isFixedGasLimit": false
    }
  ],
  "receipts": [
    {
      "transactionHash": "0x95ca8cf1ed6746864611783c6ed0565af9d7679076133615b9474fb27154b558",
      "transactionIndex": "0x14",
      "blockHash": "0x683195e25144a1f7290d6614932c388ed871b8806b1525a4e50b6b1abc23d5ad",
      "blockNumber": "0x58f59b",
      "from": "0xd3E7c6032Cb71BAc39C2c16Df41b5364b6158de5",
      "to": "0x3A282826128170Bfff3c9a60b863a06138850222",
      "cumulativeGasUsed": "0x1dc613",
      "gasUsed": "0x7152",
      "contractAddress": null,
      "logs": [],
      "status": "0x1",
      "logsBloom": "0x00000000000000000000000000000000000000000000000000000000000000000000000000000000000000000000000000000000000000000000000000000000000000000000000000000000000000000000000000000000000000000000000000000000000000000000000000000000000000000000000000000000000000000000000000000000000000000000000000000000000000000000000000000000000000000000000000000000000000000000000000000000000000000000000000000000000000000000000000000000000000000000000000000000000000000000000000000000000000000000000000000000000000000000000000000000",
      "type": "0x2",
      "effectiveGasPrice": "0x4e289330f"
    },
    {
      "transactionHash": "0x27249fca7e01c66e2e670d76b4a043495408ab6fec9b1531dd249d0bbee2cd3b",
      "transactionIndex": "0x15",
      "blockHash": "0x683195e25144a1f7290d6614932c388ed871b8806b1525a4e50b6b1abc23d5ad",
      "blockNumber": "0x58f59b",
      "from": "0xd3E7c6032Cb71BAc39C2c16Df41b5364b6158de5",
      "to": "0x88722fe08849E91eD6dA694B62EFD37885c5dBFd",
      "cumulativeGasUsed": "0x1e974a",
      "gasUsed": "0xd137",
      "contractAddress": null,
      "logs": [
        {
          "address": "0x88722fe08849E91eD6dA694B62EFD37885c5dBFd",
          "topics": [
            "0xddf252ad1be2c89b69c2b068fc378daa952ba7f163c4a11628f55a4df523b3ef",
            "0x0000000000000000000000000000000000000000000000000000000000000000",
            "0x000000000000000000000000fcc0fdfa58352a818bf6753f99220a4e2d87d6ae"
          ],
          "data": "0x0000000000000000000000000000000000000000000000056bc75e2d63100000",
          "blockHash": "0x683195e25144a1f7290d6614932c388ed871b8806b1525a4e50b6b1abc23d5ad",
          "blockNumber": "0x58f59b",
          "transactionHash": "0x27249fca7e01c66e2e670d76b4a043495408ab6fec9b1531dd249d0bbee2cd3b",
          "transactionIndex": "0x15",
          "logIndex": "0x18",
          "removed": false
        }
      ],
      "status": "0x1",
      "logsBloom": "0x00000000000000000000000000000000000000000000000000000000000000000000000000000000000000000800000000000000000000000000000000000000000000000000000000000008000000000000002000000000000000000000010000000000020040000000000000000800000000000000000000000010000000000000000000000000000000000000000000000000000000000000000000000000000000000000000000000000000000000000000000000000000000000000000000000002000000000000000000000000000000000000000000000000000020000000000000000000000200000000000020000000000000000000000000000000",
      "type": "0x2",
      "effectiveGasPrice": "0x4e289330f"
    },
    {
      "transactionHash": "0x6661f0067f5c79a163782bbea8f8cec92181844a7276bdc9058d2d350492ba23",
      "transactionIndex": "0x16",
      "blockHash": "0x683195e25144a1f7290d6614932c388ed871b8806b1525a4e50b6b1abc23d5ad",
      "blockNumber": "0x58f59b",
      "from": "0xd3E7c6032Cb71BAc39C2c16Df41b5364b6158de5",
      "to": "0x94a9D9AC8a22534E3FaCa9F4e7F2E2cf85d5E4C8",
      "cumulativeGasUsed": "0x1f4bd1",
      "gasUsed": "0xb487",
      "contractAddress": null,
      "logs": [
        {
          "address": "0x94a9D9AC8a22534E3FaCa9F4e7F2E2cf85d5E4C8",
          "topics": [
            "0x8c5be1e5ebec7d5bd14f71427d1e84f3dd0314c0f7b2291e5b200ac8c7c3b925",
            "0x000000000000000000000000d3e7c6032cb71bac39c2c16df41b5364b6158de5",
            "0x000000000000000000000000fcc0fdfa58352a818bf6753f99220a4e2d87d6ae"
          ],
          "data": "0x0000000000000000000000000000000000000000000000000000000005f5e100",
          "blockHash": "0x683195e25144a1f7290d6614932c388ed871b8806b1525a4e50b6b1abc23d5ad",
          "blockNumber": "0x58f59b",
          "transactionHash": "0x6661f0067f5c79a163782bbea8f8cec92181844a7276bdc9058d2d350492ba23",
          "transactionIndex": "0x16",
          "logIndex": "0x19",
          "removed": false
        }
      ],
      "status": "0x1",
      "logsBloom": "0x00000000000000000000000000000000000000000000000000000800000000000000000000000000000000000800000000000000000000000000000000200000000000000000000000000000000000000000002000000000000008000000000000000000000040000000000000000000000000000000000000000000000000000000000000000000000000000000000000000000000000000000000000000000020000000100000000004000000000000000000000000000000000000000000000000000400000000000000000000000000000000000000000000000000000000010000000000000000000000000000020000000000000000000000000000000",
      "type": "0x2",
      "effectiveGasPrice": "0x4e289330f"
    }
  ],
  "libraries": [],
  "pending": [],
  "returns": {},
  "timestamp": 1714762299,
  "chain": 11155111,
  "commit": "f1da080"
}