{
  "transactions": [
    {
      "hash": "0x8814dc94b56c9cb15694f0050f7ea03bc17b353e086c2201e5e8a95e90cab8f1",
      "transactionType": "CALL",
      "contractName": null,
      "contractAddress": "0x3A282826128170Bfff3c9a60b863a06138850222",
      "function": "setDexAddress(address)",
      "arguments": [
        "0xF18DEd2aa6188E81bc258C1d5EAF02D340Eb68e7"
      ],
      "transaction": {
        "type": "0x02",
        "from": "0xd3e7c6032cb71bac39c2c16df41b5364b6158de5",
        "to": "0x3a282826128170bfff3c9a60b863a06138850222",
        "gas": "0xa5ba",
        "value": "0x0",
        "data": "0x26f9a952000000000000000000000000f18ded2aa6188e81bc258c1d5eaf02d340eb68e7",
        "nonce": "0x116",
        "accessList": []
      },
      "additionalContracts": [],
      "isFixedGasLimit": false
    },
    {
      "hash": "0x2aeebe84f216ecb2d4321003e9d6e0713a642de3ca02710189cc4386f1444898",
      "transactionType": "CALL",
      "contractName": null,
      "contractAddress": "0x88722fe08849E91eD6dA694B62EFD37885c5dBFd",
      "function": "mint(address,uint256)",
      "arguments": [
        "0xF18DEd2aa6188E81bc258C1d5EAF02D340Eb68e7",
        "100000000000000000000"
      ],
      "transaction": {
        "type": "0x02",
        "from": "0xd3e7c6032cb71bac39c2c16df41b5364b6158de5",
        "to": "0x88722fe08849e91ed6da694b62efd37885c5dbfd",
        "gas": "0x120f9",
        "value": "0x0",
        "data": "0x40c10f19000000000000000000000000f18ded2aa6188e81bc258c1d5eaf02d340eb68e70000000000000000000000000000000000000000000000056bc75e2d63100000",
        "nonce": "0x117",
        "accessList": []
      },
      "additionalContracts": [],
      "isFixedGasLimit": false
    },
    {
      "hash": "0x30fa434363f03834f46da358709072c9ceed52502ec305a94febd41cf4fea7df",
      "transactionType": "CALL",
      "contractName": null,
      "contractAddress": "0x94a9D9AC8a22534E3FaCa9F4e7F2E2cf85d5E4C8",
      "function": "approve(address,uint256)",
      "arguments": [
        "0xF18DEd2aa6188E81bc258C1d5EAF02D340Eb68e7",
        "100000000"
      ],
      "transaction": {
        "type": "0x02",
        "from": "0xd3e7c6032cb71bac39c2c16df41b5364b6158de5",
        "to": "0x94a9d9ac8a22534e3faca9f4e7f2e2cf85d5e4c8",
        "gas": "0xa654",
        "value": "0x0",
        "data": "0x095ea7b3000000000000000000000000f18ded2aa6188e81bc258c1d5eaf02d340eb68e70000000000000000000000000000000000000000000000000000000005f5e100",
        "nonce": "0x118",
        "accessList": []
      },
      "additionalContracts": [],
      "isFixedGasLimit": false
    }
  ],
  "receipts": [
    {
      "transactionHash": "0x8814dc94b56c9cb15694f0050f7ea03bc17b353e086c2201e5e8a95e90cab8f1",
      "transactionIndex": "0xb",
      "blockHash": "0xe1d3cb8c16c02078c21c1b12e661d81f57d82a8612a1d20aab0b70210509743e",
      "blockNumber": "0x58f617",
      "from": "0xd3E7c6032Cb71BAc39C2c16Df41b5364b6158de5",
      "to": "0x3A282826128170Bfff3c9a60b863a06138850222",
      "cumulativeGasUsed": "0xc9cc2",
      "gasUsed": "0x7152",
      "contractAddress": null,
      "logs": [],
      "status": "0x1",
      "logsBloom": "0x00000000000000000000000000000000000000000000000000000000000000000000000000000000000000000000000000000000000000000000000000000000000000000000000000000000000000000000000000000000000000000000000000000000000000000000000000000000000000000000000000000000000000000000000000000000000000000000000000000000000000000000000000000000000000000000000000000000000000000000000000000000000000000000000000000000000000000000000000000000000000000000000000000000000000000000000000000000000000000000000000000000000000000000000000000000",
      "type": "0x2",
      "effectiveGasPrice": "0x3530288e8"
    },
    {
      "transactionHash": "0x2aeebe84f216ecb2d4321003e9d6e0713a642de3ca02710189cc4386f1444898",
      "transactionIndex": "0xc",
      "blockHash": "0xe1d3cb8c16c02078c21c1b12e661d81f57d82a8612a1d20aab0b70210509743e",
      "blockNumber": "0x58f617",
      "from": "0xd3E7c6032Cb71BAc39C2c16Df41b5364b6158de5",
      "to": "0x88722fe08849E91eD6dA694B62EFD37885c5dBFd",
      "cumulativeGasUsed": "0xd6df9",
      "gasUsed": "0xd137",
      "contractAddress": null,
      "logs": [
        {
          "address": "0x88722fe08849E91eD6dA694B62EFD37885c5dBFd",
          "topics": [
            "0xddf252ad1be2c89b69c2b068fc378daa952ba7f163c4a11628f55a4df523b3ef",
            "0x0000000000000000000000000000000000000000000000000000000000000000",
            "0x000000000000000000000000f18ded2aa6188e81bc258c1d5eaf02d340eb68e7"
          ],
          "data": "0x0000000000000000000000000000000000000000000000056bc75e2d63100000",
          "blockHash": "0xe1d3cb8c16c02078c21c1b12e661d81f57d82a8612a1d20aab0b70210509743e",
          "blockNumber": "0x58f617",
          "transactionHash": "0x2aeebe84f216ecb2d4321003e9d6e0713a642de3ca02710189cc4386f1444898",
          "transactionIndex": "0xc",
          "logIndex": "0x8",
          "removed": false
        }
      ],
      "status": "0x1",
      "logsBloom": "0x00000000100000000000000000000000000000000000000000000000000000000000000000000000000000000000000000000000000000000000000000000000000000000000000000000008000000000000002000000000000000000000010000000000020000000000000000000800000000000000000000000010000000000000000000000000000000000000000000000000000000000000000000000000000000000000000000000000000000000000000000000000000000000000000000000002000000000000000000400000000000000000040000000000000020000000000000000000000200000000000000000000000000000000000000000000",
      "type": "0x2",
      "effectiveGasPrice": "0x3530288e8"
    },
    {
      "transactionHash": "0x30fa434363f03834f46da358709072c9ceed52502ec305a94febd41cf4fea7df",
      "transactionIndex": "0xd",
      "blockHash": "0xe1d3cb8c16c02078c21c1b12e661d81f57d82a8612a1d20aab0b70210509743e",
      "blockNumber": "0x58f617",
      "from": "0xd3E7c6032Cb71BAc39C2c16Df41b5364b6158de5",
      "to": "0x94a9D9AC8a22534E3FaCa9F4e7F2E2cf85d5E4C8",
      "cumulativeGasUsed": "0xddfb4",
      "gasUsed": "0x71bb",
      "contractAddress": null,
      "logs": [
        {
          "address": "0x94a9D9AC8a22534E3FaCa9F4e7F2E2cf85d5E4C8",
          "topics": [
            "0x8c5be1e5ebec7d5bd14f71427d1e84f3dd0314c0f7b2291e5b200ac8c7c3b925",
            "0x000000000000000000000000d3e7c6032cb71bac39c2c16df41b5364b6158de5",
            "0x000000000000000000000000f18ded2aa6188e81bc258c1d5eaf02d340eb68e7"
          ],
          "data": "0x0000000000000000000000000000000000000000000000000000000005f5e100",
          "blockHash": "0xe1d3cb8c16c02078c21c1b12e661d81f57d82a8612a1d20aab0b70210509743e",
          "blockNumber": "0x58f617",
          "transactionHash": "0x30fa434363f03834f46da358709072c9ceed52502ec305a94febd41cf4fea7df",
          "transactionIndex": "0xd",
          "logIndex": "0x9",
          "removed": false
        }
      ],
      "status": "0x1",
      "logsBloom": "0x00000000100000000000000000000000000000000000000000000800000000000000000000000000000000000000000000000000000000000000000000200000000000000000000000000000000000000000002000000000000008000000000000000000000000000000000000000000000000000000000000000000000000000000000000000000000000000000000000000000000000000000000000000000020000000100000000004000000000000000000000000000000000000000000000000000400000000000000000400000000000000000040000000000000000000010000000000000000000000000000000000000000000000000000000000000",
      "type": "0x2",
      "effectiveGasPrice": "0x3530288e8"
    }
  ],
  "libraries": [],
  "pending": [],
  "returns": {},
  "timestamp": 1714763873,
  "chain": 11155111,
  "commit": "f1da080"
}