{
  "transactions": [
    {
      "hash": "0x1199d48a45087d9d008baec2a994993ebeb7fe5bf329191e1556eb5b4baed56b",
      "transactionType": "CALL",
      "contractName": null,
      "contractAddress": "0x22DAcCD029c443D1af422f10dabcFB77EB69319f",
      "function": "withdraw(address)",
      "arguments": [
        "0x3c499c542cEF5E3811e1192ce70d8cC03d5c3359"
      ],
      "transaction": {
        "type": "0x02",
        "from": "0x2d52ca3a1757275b42599d9dd7ec5afe4a458d76",
        "to": "0x22daccd029c443d1af422f10dabcfb77eb69319f",
        "gas": "0x1745a",
        "value": "0x0",
        "data": "0x51cff8d90000000000000000000000003c499c542cef5e3811e1192ce70d8cc03d5c3359",
        "nonce": "0x36",
        "accessList": []
      },
      "additionalContracts": [],
      "isFixedGasLimit": false
    }
  ],
  "receipts": [
    {
      "transactionHash": "0x1199d48a45087d9d008baec2a994993ebeb7fe5bf329191e1556eb5b4baed56b",
      "transactionIndex": "0x39",
      "blockHash": "0x6a6dfd1f29d9f4c579008b3157b280bdde4a00252215d54ea31cf20b3c684992",
      "blockNumber": "0x36549bb",
      "from": "0x2d52CA3A1757275b42599D9dd7EC5afE4a458D76",
      "to": "0x22DAcCD029c443D1af422f10dabcFB77EB69319f",
      "cumulativeGasUsed": "0x588fa7",
      "gasUsed": "0xfe9a",
      "contractAddress": null,
      "logs": [
        {
          "address": "0x3c499c542cEF5E3811e1192ce70d8cC03d5c3359",
          "topics": [
            "0xddf252ad1be2c89b69c2b068fc378daa952ba7f163c4a11628f55a4df523b3ef",
            "0x00000000000000000000000022daccd029c443d1af422f10dabcfb77eb69319f",
            "0x0000000000000000000000002d52ca3a1757275b42599d9dd7ec5afe4a458d76"
          ],
          "data": "0x00000000000000000000000000000000000000000000000000000000000f4240",
          "blockHash": "0x6a6dfd1f29d9f4c579008b3157b280bdde4a00252215d54ea31cf20b3c684992",
          "blockNumber": "0x36549bb",
          "transactionHash": "0x1199d48a45087d9d008baec2a994993ebeb7fe5bf329191e1556eb5b4baed56b",
          "transactionIndex": "0x39",
          "logIndex": "0xb9",
          "removed": false
        },
        {
          "address": "0x0000000000000000000000000000000000001010",
          "topics": [
            "0x4dfe1bbbcf077ddc3e01291eea2d5c70c2b422b415d95645b9adcfd678cb1d63",
            "0x0000000000000000000000000000000000000000000000000000000000001010",
            "0x0000000000000000000000002d52ca3a1757275b42599d9dd7ec5afe4a458d76",
            "0x00000000000000000000000067b94473d81d0cd00849d563c94d0432ac988b49"
          ],
          "data": "0x0000000000000000000000000000000000000000000000000006f25f121d780000000000000000000000000000000000000000000000000021d1f05a2d33e95c000000000000000000000000000000000000000000000d5cf9e34c22872b665e00000000000000000000000000000000000000000000000021cafdfb1b16715c000000000000000000000000000000000000000000000d5cf9ea3e819948de5e",
          "blockHash": "0x6a6dfd1f29d9f4c579008b3157b280bdde4a00252215d54ea31cf20b3c684992",
          "blockNumber": "0x36549bb",
          "transactionHash": "0x1199d48a45087d9d008baec2a994993ebeb7fe5bf329191e1556eb5b4baed56b",
          "transactionIndex": "0x39",
          "logIndex": "0xba",
          "removed": false
        }
      ],
      "status": "0x1",
      "logsBloom": "0x00000000000000000000000000000000000000000000000000000000000000000000000000000000000000000000000000008000000000000000000000000000000000000000000000000008000000800000000000100000000100000000200000000000000000000000000000000000000000000000000080000010000000000000000000000000000000000000000000000000000000000000000000000000200000000000000000000000000000000801000000000000000000000000004000820002000000000001000000008000000000000000000000100008000000400000020000000000000000000000010000000000100000000000000000100000",
      "type": "0x2",
      "effectiveGasPrice": "0x6fc23ad44"
    }
  ],
  "libraries": [],
  "pending": [],
  "returns": {},
  "timestamp": 1715714438,
  "chain": 137,
  "commit": "7fe6fc1"
}