{
  "transactions": [
    {
      "hash": "0x4da62e4dc740e008f0037ffcc53397c15c84f14d88125ac96e724ce132f35c6d",
      "transactionType": "CALL",
      "contractName": null,
      "contractAddress": "0xf609E9E0A5de65ECc06a00767304545afF59B770",
      "function": "setDexAddress(address)",
      "arguments": [
        "0x22DAcCD029c443D1af422f10dabcFB77EB69319f"
      ],
      "transaction": {
        "type": "0x02",
        "from": "0x2d52ca3a1757275b42599d9dd7ec5afe4a458d76",
        "to": "0xf609e9e0a5de65ecc06a00767304545aff59b770",
        "gas": "0x107a1",
        "value": "0x0",
        "data": "0x26f9a95200000000000000000000000022daccd029c443d1af422f10dabcfb77eb69319f",
        "nonce": "0x2f",
        "accessList": []
      },
      "additionalContracts": [],
      "isFixedGasLimit": false
    }
  ],
  "receipts": [
    {
      "transactionHash": "0x4da62e4dc740e008f0037ffcc53397c15c84f14d88125ac96e724ce132f35c6d",
      "transactionIndex": "0x39",
      "blockHash": "0xf7de9f0d865055a9938883803bbaf96c78050907c647138909bd8c24f47c4993",
      "blockNumber": "0x36546e7",
      "from": "0x2d52CA3A1757275b42599D9dd7EC5afE4a458D76",
      "to": "0xf609E9E0A5de65ECc06a00767304545afF59B770",
      "cumulativeGasUsed": "0x534937",
      "gasUsed": "0xb443",
      "contractAddress": null,
      "logs": [
        {
          "address": "0x0000000000000000000000000000000000001010",
          "topics": [
            "0x4dfe1bbbcf077ddc3e01291eea2d5c70c2b422b415d95645b9adcfd678cb1d63",
            "0x0000000000000000000000000000000000000000000000000000000000001010",
            "0x0000000000000000000000002d52ca3a1757275b42599d9dd7ec5afe4a458d76",
            "0x00000000000000000000000067b94473d81d0cd00849d563c94d0432ac988b49"
          ],
          "data": "0x0000000000000000000000000000000000000000000000000004eb1d12460400000000000000000000000000000000000000000000000000222172d082325676000000000000000000000000000000000000000000000d599127422016691ad0000000000000000000000000000000000000000000000000221c87b36fec5276000000000000000000000000000000000000000000000d59912c2d3d28af1ed0",
          "blockHash": "0xf7de9f0d865055a9938883803bbaf96c78050907c647138909bd8c24f47c4993",
          "blockNumber": "0x36546e7",
          "transactionHash": "0x4da62e4dc740e008f0037ffcc53397c15c84f14d88125ac96e724ce132f35c6d",
          "transactionIndex": "0x39",
          "logIndex": "0xb4",
          "removed": false
        }
      ],
      "status": "0x1",
      "logsBloom": "0x00000000000000000000000000000000000000000000000000000000000000000000000000000000000000000000000000008000000000000000000000000000000000000000000000000000000000800000000000000000000100000000000000000000000000000000000000000000000000000000000080000000000000000000000000000000000000000000000000000000000000000000000000000000200000000000000000000000000000000001000000000000000000000000004000820000000000000001000000008000000000000000000000100000000000400000020000000000000000000000000000000000000000000000000000100000",
      "type": "0x2",
      "effectiveGasPrice": "0x6fc23cc54"
    }
  ],
  "libraries": [],
  "pending": [],
  "returns": {},
  "timestamp": 1715712769,
  "chain": 137,
  "commit": "7fe6fc1"
}