{
  "transactions": [
    {
      "hash": "0x0a30e51982d914b3efbeefba04c9aab6fa58ef75d3bf81728d838844946e8cdb",
      "transactionType": "CALL",
      "contractName": null,
      "contractAddress": "0x22DAcCD029c443D1af422f10dabcFB77EB69319f",
      "function": "withdraw(address)",
      "arguments": [
        "0x3c499c542cEF5E3811e1192ce70d8cC03d5c3359"
      ],
      "transaction": {
        "type": "0x02",
        "from": "0x2d52ca3a1757275b42599d9dd7ec5afe4a458d76",
        "to": "0x22daccd029c443d1af422f10dabcfb77eb69319f",
        "gas": "0x1745a",
        "value": "0x0",
        "data": "0x51cff8d90000000000000000000000003c499c542cef5e3811e1192ce70d8cc03d5c3359",
        "nonce": "0x34",
        "accessList": []
      },
      "additionalContracts": [],
      "isFixedGasLimit": false
    }
  ],
  "receipts": [
    {
      "transactionHash": "0x0a30e51982d914b3efbeefba04c9aab6fa58ef75d3bf81728d838844946e8cdb",
      "transactionIndex": "0x41",
      "blockHash": "0xafca8c757606bcb6915a6537541c1d17ba4a760f5f789b7a4eaffcb3612f8485",
      "blockNumber": "0x3654974",
      "from": "0x2d52CA3A1757275b42599D9dd7EC5afE4a458D76",
      "to": "0x22DAcCD029c443D1af422f10dabcFB77EB69319f",
      "cumulativeGasUsed": "0x71c368",
      "gasUsed": "0xfe9a",
      "contractAddress": null,
      "logs": [
        {
          "address": "0x3c499c542cEF5E3811e1192ce70d8cC03d5c3359",
          "topics": [
            "0xddf252ad1be2c89b69c2b068fc378daa952ba7f163c4a11628f55a4df523b3ef",
            "0x00000000000000000000000022daccd029c443d1af422f10dabcfb77eb69319f",
            "0x0000000000000000000000002d52ca3a1757275b42599d9dd7ec5afe4a458d76"
          ],
          "data": "0x00000000000000000000000000000000000000000000000000000000000f4240",
          "blockHash": "0xafca8c757606bcb6915a6537541c1d17ba4a760f5f789b7a4eaffcb3612f8485",
          "blockNumber": "0x3654974",
          "transactionHash": "0x0a30e51982d914b3efbeefba04c9aab6fa58ef75d3bf81728d838844946e8cdb",
          "transactionIndex": "0x41",
          "logIndex": "0xfb",
          "removed": false
        },
        {
          "address": "0x0000000000000000000000000000000000001010",
          "topics": [
            "0x4dfe1bbbcf077ddc3e01291eea2d5c70c2b422b415d95645b9adcfd678cb1d63",
            "0x0000000000000000000000000000000000000000000000000000000000001010",
            "0x0000000000000000000000002d52ca3a1757275b42599d9dd7ec5afe4a458d76",
            "0x00000000000000000000000073d378cfeaa5cbe8daed64128ebdc91322aa586b"
          ],
          "data": "0x0000000000000000000000000000000000000000000000000006f25f121d780000000000000000000000000000000000000000000000000021e7ffd2cc9dd7cc0000000000000000000000000000000000000000000002a976c68830f3ea43f900000000000000000000000000000000000000000000000021e10d73ba805fcc0000000000000000000000000000000000000000000002a976cd7a900607bbf9",
          "blockHash": "0xafca8c757606bcb6915a6537541c1d17ba4a760f5f789b7a4eaffcb3612f8485",
          "blockNumber": "0x3654974",
          "transactionHash": "0x0a30e51982d914b3efbeefba04c9aab6fa58ef75d3bf81728d838844946e8cdb",
          "transactionIndex": "0x41",
          "logIndex": "0xfc",
          "removed": false
        }
      ],
      "status": "0x1",
      "logsBloom": "0x00000000000000000000000000000000000000000000000000400000000000000000000000000000000000000000000000008000000000000000000000000000000000000000000000000008000000800000000000100000000100000000200000000000000000000000000000000000000000000000000080100010000000000000000000000000000000000000000000010000000000000000000000000000200000000000000000000000000000000801000000000000000000000000004000020002000000000001000000000000000000000000000000100008000000400000000000000000000000000000010000000000100000000000000000100000",
      "type": "0x2",
      "effectiveGasPrice": "0x6fc23b15c"
    }
  ],
  "libraries": [],
  "pending": [],
  "returns": {},
  "timestamp": 1715714285,
  "chain": 137,
  "commit": "7fe6fc1"
}