{
  "transactions": [
    {
      "hash": "0xc1fc910bc825e99c91e6ab7dd22c8a8403ab52e9b8ce9921010d178fa765b2a5",
      "transactionType": "CALL",
      "contractName": null,
      "contractAddress": "0xFF5570d4440aA0380D4ceA8F73A6027C3ce702C6",
      "function": "mint(address,uint256)",
      "arguments": [
        "0x22DAcCD029c443D1af422f10dabcFB77EB69319f",
        "1000000000000000000000"
      ],
      "transaction": {
        "type": "0x02",
        "from": "0x2d52ca3a1757275b42599d9dd7ec5afe4a458d76",
        "to": "0xff5570d4440aa0380d4cea8f73a6027c3ce702c6",
        "gas": "0x193aa",
        "value": "0x0",
        "data": "0x40c10f1900000000000000000000000022daccd029c443d1af422f10dabcfb77eb69319f00000000000000000000000000000000000000000000003635c9adc5dea00000",
        "nonce": "0x30",
        "accessList": []
      },
      "additionalContracts": [],
      "isFixedGasLimit": false
    }
  ],
  "receipts": [
    {
      "transactionHash": "0xc1fc910bc825e99c91e6ab7dd22c8a8403ab52e9b8ce9921010d178fa765b2a5",
      "transactionIndex": "0x5c",
      "blockHash": "0x66f8863844c4e3803f727ce89f44bddce70d27c4a70e8befb16d815e12a71dce",
      "blockNumber": "0x36546fa",
      "from": "0x2d52CA3A1757275b42599D9dd7EC5afE4a458D76",
      "to": "0xFF5570d4440aA0380D4ceA8F73A6027C3ce702C6",
      "cumulativeGasUsed": "0x975d94",
      "gasUsed": "0x11403",
      "contractAddress": null,
      "logs": [
        {
          "address": "0xFF5570d4440aA0380D4ceA8F73A6027C3ce702C6",
          "topics": [
            "0xddf252ad1be2c89b69c2b068fc378daa952ba7f163c4a11628f55a4df523b3ef",
            "0x0000000000000000000000000000000000000000000000000000000000000000",
            "0x00000000000000000000000022daccd029c443d1af422f10dabcfb77eb69319f"
          ],
          "data": "0x00000000000000000000000000000000000000000000003635c9adc5dea00000",
          "blockHash": "0x66f8863844c4e3803f727ce89f44bddce70d27c4a70e8befb16d815e12a71dce",
          "blockNumber": "0x36546fa",
          "transactionHash": "0xc1fc910bc825e99c91e6ab7dd22c8a8403ab52e9b8ce9921010d178fa765b2a5",
          "transactionIndex": "0x5c",
          "logIndex": "0x15e",
          "removed": false
        },
        {
          "address": "0x0000000000000000000000000000000000001010",
          "topics": [
            "0x4dfe1bbbcf077ddc3e01291eea2d5c70c2b422b415d95645b9adcfd678cb1d63",
            "0x0000000000000000000000000000000000000000000000000000000000001010",
            "0x0000000000000000000000002d52ca3a1757275b42599d9dd7ec5afe4a458d76",
            "0x0000000000000000000000007c7379531b2aee82e4ca06d4175d13b9cbeafd49"
          ],
          "data": "0x000000000000000000000000000000000000000000000000000787eb636ca61b000000000000000000000000000000000000000000000000221c87b35928cc7a00000000000000000000000000000000000000000002fa1563b61d41ea31e5310000000000000000000000000000000000000000000000002214ffc7f5bc265f00000000000000000000000000000000000000000002fa1563bda52d4d9e8b4c",
          "blockHash": "0x66f8863844c4e3803f727ce89f44bddce70d27c4a70e8befb16d815e12a71dce",
          "blockNumber": "0x36546fa",
          "transactionHash": "0xc1fc910bc825e99c91e6ab7dd22c8a8403ab52e9b8ce9921010d178fa765b2a5",
          "transactionIndex": "0x5c",
          "logIndex": "0x15f",
          "removed": false
        }
      ],
      "status": "0x1",
      "logsBloom": "0x00000000000000000000000000000000000000000000000000000000000000400000000000000000000000000000000000008000000000000000000000000000000000000400000000000008000000800000000000500000000100000000200000000000020000000020000000000800000000000000000080000010000000000000000000000000000000000000000000000000000000000000000000000000200000000000000000000000000000000001000000000000000000000000004000020002000004000001000000000000000000000000000000100008000020400000000000000000000000000000000000000000000000000000000000100000",
      "type": "0x2",
      "effectiveGasPrice": "0x6fc23cd54"
    }
  ],
  "libraries": [],
  "pending": [],
  "returns": {},
  "timestamp": 1715712807,
  "chain": 137,
  "commit": "7fe6fc1"
}