{
  "transactions": [
    {
      "hash": "0x1d97dee6fa2d333ef3c5a1519954db8c8ab1dc1a1c54f5090acdc94997d47e76",
      "transactionType": "CALL",
      "contractName": null,
      "contractAddress": "0x22DAcCD029c443D1af422f10dabcFB77EB69319f",
      "function": "depositUSDTandReciveToken(uint256,uint256,uint8,bytes32,bytes32)",
      "arguments": [
        "1000000",
        "1715716583",
        "27",
        "0x8972ba328ee5d050e3eb76cba4cc6ebe13f5d43c791116ca603cdb827c4a20ce",
        "0x7393beb81296338b442a4c2d6338b095bf58727aaec86f4fb515d8786dab4c30"
      ],
      "transaction": {
        "type": "0x02",
        "from": "0x2d52ca3a1757275b42599d9dd7ec5afe4a458d76",
        "to": "0x22daccd029c443d1af422f10dabcfb77eb69319f",
        "gas": "0x390a2",
        "value": "0x0",
        "data": "0x88ff070a00000000000000000000000000000000000000000000000000000000000f4240000000000000000000000000000000000000000000000000000000006643c1e7000000000000000000000000000000000000000000000000000000000000001b8972ba328ee5d050e3eb76cba4cc6ebe13f5d43c791116ca603cdb827c4a20ce7393beb81296338b442a4c2d6338b095bf58727aaec86f4fb515d8786dab4c30",
        "nonce": "0x31",
        "accessList": []
      },
      "additionalContracts": [],
      "isFixedGasLimit": false
    }
  ],
  "receipts": [
    {
      "transactionHash": "0x1d97dee6fa2d333ef3c5a1519954db8c8ab1dc1a1c54f5090acdc94997d47e76",
      "transactionIndex": "0x35",
      "blockHash": "0x11676ed6b3844feda10f6f66b124eff15df6ef67359c96f42fb2868fe7bff160",
      "blockNumber": "0x3654799",
      "from": "0x2d52CA3A1757275b42599D9dd7EC5afE4a458D76",
      "to": "0x22DAcCD029c443D1af422f10dabcFB77EB69319f",
      "cumulativeGasUsed": "0x658d8d",
      "gasUsed": "0x294bc",
      "contractAddress": null,
      "logs": [
        {
          "address": "0x3c499c542cEF5E3811e1192ce70d8cC03d5c3359",
          "topics": [
            "0x8c5be1e5ebec7d5bd14f71427d1e84f3dd0314c0f7b2291e5b200ac8c7c3b925",
            "0x0000000000000000000000002d52ca3a1757275b42599d9dd7ec5afe4a458d76",
            "0x00000000000000000000000022daccd029c443d1af422f10dabcfb77eb69319f"
          ],
          "data": "0x00000000000000000000000000000000000000000000000000000000000f4240",
          "blockHash": "0x11676ed6b3844feda10f6f66b124eff15df6ef67359c96f42fb2868fe7bff160",
          "blockNumber": "0x3654799",
          "transactionHash": "0x1d97dee6fa2d333ef3c5a1519954db8c8ab1dc1a1c54f5090acdc94997d47e76",
          "transactionIndex": "0x35",
          "logIndex": "0xbf",
          "removed": false
        },
        {
          "address": "0x3c499c542cEF5E3811e1192ce70d8cC03d5c3359",
          "topics": [
            "0xddf252ad1be2c89b69c2b068fc378daa952ba7f163c4a11628f55a4df523b3ef",
            "0x0000000000000000000000002d52ca3a1757275b42599d9dd7ec5afe4a458d76",
            "0x00000000000000000000000022daccd029c443d1af422f10dabcfb77eb69319f"
          ],
          "data": "0x00000000000000000000000000000000000000000000000000000000000f4240",
          "blockHash": "0x11676ed6b3844feda10f6f66b124eff15df6ef67359c96f42fb2868fe7bff160",
          "blockNumber": "0x3654799",
          "transactionHash": "0x1d97dee6fa2d333ef3c5a1519954db8c8ab1dc1a1c54f5090acdc94997d47e76",
          "transactionIndex": "0x35",
          "logIndex": "0xc0",
          "removed": false
        },
        {
          "address": "0xFF5570d4440aA0380D4ceA8F73A6027C3ce702C6",
          "topics": [
            "0xddf252ad1be2c89b69c2b068fc378daa952ba7f163c4a11628f55a4df523b3ef",
            "0x00000000000000000000000022daccd029c443d1af422f10dabcfb77eb69319f",
            "0x000000000000000000000000f609e9e0a5de65ecc06a00767304545aff59b770"
          ],
          "data": "0x0000000000000000000000000000000000000000000000056bc75e2d63100000",
          "blockHash": "0x11676ed6b3844feda10f6f66b124eff15df6ef67359c96f42fb2868fe7bff160",
          "blockNumber": "0x3654799",
          "transactionHash": "0x1d97dee6fa2d333ef3c5a1519954db8c8ab1dc1a1c54f5090acdc94997d47e76",
          "transactionIndex": "0x35",
          "logIndex": "0xc1",
          "removed": false
        },
        {
          "address": "0x0000000000000000000000000000000000001010",
          "topics": [
            "0x4dfe1bbbcf077ddc3e01291eea2d5c70c2b422b415d95645b9adcfd678cb1d63",
            "0x0000000000000000000000000000000000000000000000000000000000001010",
            "0x0000000000000000000000002d52ca3a1757275b42599d9dd7ec5afe4a458d76",
            "0x00000000000000000000000067b94473d81d0cd00849d563c94d0432ac988b49"
          ],
          "data": "0x0000000000000000000000000000000000000000000000000012072d21a250000000000000000000000000000000000000000000000000002214ffc7cb5ed47e000000000000000000000000000000000000000000000d5a7704bbfa1815d4e90000000000000000000000000000000000000000000000002202f89aa9bc847e000000000000000000000000000000000000000000000d5a7716c32739b824e9",
          "blockHash": "0x11676ed6b3844feda10f6f66b124eff15df6ef67359c96f42fb2868fe7bff160",
          "blockNumber": "0x3654799",
          "transactionHash": "0x1d97dee6fa2d333ef3c5a1519954db8c8ab1dc1a1c54f5090acdc94997d47e76",
          "transactionIndex": "0x35",
          "logIndex": "0xc2",
          "removed": false
        }
      ],
      "status": "0x1",
      "logsBloom": "0x00000000000000000000000000000000000000000000000000000000000000000000000000000000000000000000000000008000000000000000000000200000000000000400000000020008000000800000000000100004000100000000200000000000000000000020000000010000000000000000000080000010000000000000000000000000000000000000000000000000000000000000000000000000220000000000000000000000000000000801000000000000000000000000004000820002000004000001000000008000000000000000000000100008000000400010020000000000000000000000010000000000100000000000000000100000",
      "type": "0x2",
      "effectiveGasPrice": "0x6fc23bc15"
    }
  ],
  "libraries": [],
  "pending": [],
  "returns": {},
  "timestamp": 1715713174,
  "chain": 137,
  "commit": "7fe6fc1"
}